:020000040800F2
:10000000E8070020450100084D0100084F010008E5
:1000100051010008530100085501000800000000CC
:100020000000000000000000000000005701000870
:1000300059010008000000005B0100085D01000894
:10004000170B0008190B00081B0B00081D0B0008FC
:100050001F0B0008210B0008230B0008250B0008CC
:10006000270B0008290B00082B0B00082D0B00089C
:100070002F0B0008310B0008330B0008350B00086C
:10008000370B0008390B00083B0B00085F01000824
:100090005F0100085F0100085F010008450B0008D0
:1000A000470B0008490B00084B0B00084D0B0008DC
:1000B0004F0B0008510B0008530B0008550B0008AC
:1000C000570B0008590B00085B0B00085D0B00087C
:1000D0005F0B0008610B0008630B0008650B00084C
:1000E000670B0008690B00086B0B00086D0B00081C
:1000F0006F0B0008710B0008730B0008750B0008EC
:10010000770B0008790B00087B0B00087D0B0008BB
:100110007F0B0008810B0008830B0008850B00088B
:10012000870B0008890B00088B0B00088D0B00085B
:10013000DFF80CD003F05CF900480047490A0008DA
:10014000E80700200648804706480047FEE7FEE72C
:10015000FEE7FEE7FEE7FEE7FEE7FEE7FEE7FEE777
:1001600047020008310100080CB500200190009002
:100170006C48006840F480306A49086000BF6948F4
:10018000006800F4003000900198401C0190009835
:1001900018B90198B0F5A06FF1D16248006800F479
:1001A000003010B10120009001E000200090009884
:1001B000012843D15C48006840F010005A490860AB
:1001C0000846006820F0030008600846006840F018
:1001D0000200086053484068524948600846406839
:1001E00048600846406840F48060486008464068BF
:1001F00020F47C1048600846406840F4E8104860ED
:100200000846006840F08070086000BF45480068FC
:1002100000F000700028F9D04248406820F0030048
:10022000404948600846406840F00200486000BF0E
:100230003C48406800F00C000828F9D10CBD10B50E
:10024000FFF792FF10BD10B53648006840F001007E
:1002500034490860084640683449084031494860DC
:1002600008460068324908402E4908600846006880
:1002700020F4802008600846406820F4FE004860B2
:100280004FF41F008860FFF7DAFF4FF00060294944
:10029000086010BD10B5002100200022214B5B68D2
:1002A00003F00C0121B1042906D0082928D107E068
:1002B000214B224C236027E01F4B204C236023E07E
:1002C000184B5B6803F47010164B5B6803F48032C4
:1002D000022303EB904022B9194B4343174C236090
:1002E0000DE0104B5B6803F4003323B1144B434320
:1002F000124C236003E0104B4343104C236003E097
:100300000D4B0E4C236000BF00BF064B5B68C3F370
:1003100003130C4CE15C094B1B68CB40074C23607A
:1003200010BD000000100240002002400000FFF855
:10033000FFFFF6FE08ED00E000127A00000000204A
:1003400000093D000400002010B50446CC4884425A
:1003500008D10121042000F02DFB0021042000F031
:1003600029FB46E0C748844208D10121082000F05B
:1003700021FB0021082000F01DFB3AE0C248844226
:1003800008D10121102000F015FB0021102000F001
:1003900011FB2EE0BD48844208D10121202000F04D
:1003A00009FB0021202000F005FB22E0B848844230
:1003B00008D10121402000F0FDFA0021402000F08A
:1003C000F9FA16E0B348844208D10121802000F0F8
:1003D000F1FA0021802000F0EDFA0AE0AE488442F4
:1003E00007D10121801500F0E5FA0021A01500F0E9
:1003F000E1FA10BD10B50121084600F0DBFA00213A
:10040000012000F0D7FA10BD2DE9F0410246002589
:100410000026002000230024002791F803C00CF0E0
:100420000F0591F803C00CF0100CBCF1000F03D0C5
:1004300091F802C04CEA050591F800C0BCF1000F2C
:1004400031D0146800202BE04FF0010C0CFA00F3BF
:10045000B1F800C00CEA03069E4220D183004FF0A1
:100460000F0C0CFA03F7BC4305FA03FC4CEA040436
:1004700091F803C0BCF1280F06D14FF0010C0CFA23
:1004800000FCC2F814C00AE091F803C0BCF1480FA8
:1004900005D14FF0010C0CFA00FCC2F810C0401C52
:1004A0000828D1D31460B1F800C0BCF1FF0F34DDCF
:1004B000546800202EE000F1080C4FF0010808FA03
:1004C0000CF3B1F800C00CEA03069E4221D1830070
:1004D0004FF00F0C0CFA03F7BC4305FA03FC4CEA8F
:1004E000040491F803C0BCF1280F05D100F1080CF9
:1004F00008FA0CF8C2F8148091F803C0BCF1480F58
:1005000007D100F1080C4FF0010808FA0CF8C2F806
:100510001080401C0828CED35460BDE8F0814FF60F
:10052000FF710180022181700421C1707047024671
:10053000002093680B400BB1012000E000207047C1
:100540000146886880B2704702460020D3680B409D
:100550000BB1012000E0002070470146C86880B25E
:10056000704701617047416170470AB1016100E065
:1005700041617047C16070474FF480320A43826125
:100580008161826182698269704702460020434B23
:1005900018684FF68073184040EA021008433F4B3A
:1005A000186070473E49C8617047F0B50A4600239D
:1005B00000240021002500F00046B6F1004F02D1D2
:1005C000364EF16901E0354E7168C0F3034583B2E0
:1005D00000F44016B6F5401F08D121F070612F4E8F
:1005E000766826F070662D4F7E6012E000F480166B
:1005F000B6F5801F06D1032606FA05F4A14341F0A3
:10060000706106E0460D360103FA06F6B14341F08B
:10061000706122B1460D360103FA06F6314300F04F
:100620000046B6F1004F02D11C4EF16101E01B4EB5
:100630007160F0BD30B500228B071C0F0F2303FA49
:1006400004F2164B08338C1053F824309343134CA8
:1006500008348D1044F8253023468C1053F824308C
:100660008C07240F00FA04F423430C4C08348D103B
:1006700044F8253030BD0A49DC310860704700007D
:1006800000080140000C014000100140001401402E
:1006900000180140001C0140002001400000014002
:1006A00000002042DF48006840F00100DD4908609A
:1006B00008464068DC490840DA4948600846006856
:1006C000DA490840D74908600846006820F48020CD
:1006D00008600846406820F4FE0048604FF41F00A0
:1006E00088607047CF49096821F48031CD4A116094
:1006F0001146096821F480211160B0F5803F03D0D4
:10070000B0F5802F0ED106E0C649096841F480316A
:10071000C44A116007E0C349096841F4A021C14AF5
:10072000116000E000BF00BF704710B50146002215
:10073000002300204A11012A02D1BA4C236806E0A6
:10074000022A02D1B74C236A01E0B64C636A01F079
:100750001F02012494401C400CB1012000E0002045
:1007600010BD38B5002000900024002500BF3120C6
:10077000FFF7DBFF05460098401C00900098B0F59D
:10078000A06F01D0002DF2D03120FFF7CEFF08B1CD
:10079000012400E00024204638BD01460020A14A83
:1007A000106820F0F80040EAC10010607047A049CE
:1007B00008607047024600209A4B586820F47C106D
:1007C00042EA01031843974B5860704798490866FE
:1007D000704701460020934A506820F00300084308
:1007E000506070478F48406800F00C007047014629
:1007F00000208C4A506820F0F00008435060704799
:1008000001460020874A506820F4E06008435060A9
:10081000704701460020834A506820F4605040EA47
:10082000C1005060704729B17E4A527A02437D4B25
:100830005A7204E07B4A527A82437A4B5A7270476A
:100840007B49D8310860704701460020754A5068DE
:1008500020F440400843506070470021714A203224
:100860001170704A82F82010012802D004280AD1A1
:1008700004E001216B4A2032117005E00521694A2C
:100880002032117000E000BF00BF70476949086066
:1008900070476449096A0143624A116270476549B9
:1008A00044390860704730B500210022002400233D
:1008B0005C4D6D6805F00C0121B1042905D00829B3
:1008C00023D105E05C4D056022E05B4D05601FE033
:1008D000544D6D6805F47012524D6D6805F4803406
:1008E000022505EB92421CB9544D554305600BE0BF
:1008F0004C4D6D6805F400351DB1504D55430560F4
:1009000002E04D4D5543056002E04B4D056000BFD0
:1009100000BF444D6D6805F0F0010909484D6B5C5E
:100920000568DD4045603F4D6D6805F4E061090AEA
:10093000434D6B5C4568DD4085603A4D6D6805F45C
:100940006051C90A3E4D6B5C4568DD40C560354D60
:100950006D6805F44041890B3A4D6B5CC568B5FB89
:10096000F3F5056130BD29B12E4A526902432D4B82
:100970005A6104E02B4A526982432A4B5A617047FC
:1009800029B1284A92690243264B9A6104E0254A1C
:1009900092698243234B9A61704729B1214AD269F7
:1009A0000243204BDA6104E01E4AD26982431D4BA8
:1009B000DA61704729B11B4AD2680243194BDA60E9
:1009C00004E0184AD2688243164BDA60704729B1B6
:1009D000144A12690243134B1A6104E0114A126966
:1009E0008243104B1A6170471249403908607047C2
:1009F0000F49C86470470B49C87170470948406A7D
:100A000040F0807007494862704701460020054A5F
:100A100092680A400AB1012000E0002070470149B5
:100A200088727047001002400000FFF8FFFFF6FEDA
:100A3000000042428004424200127A0000093D0058
:100A4000140000202400002008B500F070FA4820AF
:100A500000F09EF801F0E4F801F06EFF1DA2022103
:100A6000002000F005FC1EA20321002000F000FC85
:100A70001EA20421002000F0FBFB02F06AF828E02F
:100A800001F038FF1C49086802F06DFB04460220A3
:100A900022460B4601460090362000F09CFD164988
:100AA000486802F060FB0446022022460B46032100
:100AB0000090362000F08FFD0F49886802F053FB4C
:100AC0000446022022460B4604210090362000F006
:100AD00082FDD5E7416E676C6520783A0000000022
:100AE000416E676C6520793A00000000416E676CCA
:100AF00065207A3A0000000084030020704700BFA0
:100B0000FEE700BFFEE700BFFEE700BFFEE770475D
:100B1000704770477047704770477047704770471D
:100B2000704770477047704770477047704770470D
:100B300070477047704770477047704770477047FD
:100B400070477047704770477047704770477047ED
:100B500070477047704770477047704770477047DD
:100B600070477047704770477047704770477047CD
:100B700070477047704770477047704770477047BD
:100B80007047704770477047704770477047000064
:100B90004FF0E021096921F004014FF0E0221161DA
:100BA000C21700EB5272C2F3C702294B1A701946E2
:100BB000097801EB4102C2EBC1114FF6FF7202EA64
:100BC000C101244A118070470146224A12884A43D3
:100BD0004FF0E0235A6100229A6101221A6100BF9E
:100BE0004FF0E022106900F001021AB100F48032E7
:100BF000002AF5D000224FF0E0231A619A61704775
:100C00000146134A12784A434FF0E0235A6100220A
:100C10009A6101221A6100BF4FF0E022106900F0D2
:100C200001021AB100F48032002AF5D000224FF000
:100C3000E0231A619A617047002106E0002200E07B
:100C4000521CB2F5FA7FFBD3491C8142F6D37047A0
:100C5000280000202A00002070B5044608256901FC
:100C6000F648FFF77EFC00BF0221F548FFF77BFC4A
:100C700000BF16E004F0800020B10121F048FFF72A
:100C800070FC03E00121EE48FFF76DFC0221EC4807
:100C9000FFF767FC00BF0221E948FFF764FC60062C
:100CA000040E2800A5F10101CDB2E3D170BD70B5ED
:100CB000044608256901E148FFF755FC0221E04898
:100CC000FFF751FC00BF16E004F0800020B10121C5
:100CD000DB48FFF746FC03E00121D948FFF743FC5E
:100CE0000221D748FFF73DFC00BF0221D448FFF79F
:100CF0003AFC6006040E2800A5F10101CDB2E3D153
:100D000070BD70B504460D4605F1B001C8B2FFF7DD
:100D1000CEFF102141EA1410FFF7C9FF04F00F00C5
:100D2000FFF7C5FF70BD70B50646002415E004F15D
:100D3000B001C8B2FFF7BBFF0120FFF7B8FF1020DA
:100D4000FFF7B5FF002504E03046FFF785FF681C7C
:100D5000C5B2802DF8DB601CC4B2082CE7DB70BD87
:100D600070B5002415E004F1B001C8B2FFF79FFF91
:100D70000120FFF79CFF1020FFF799FF002504E0FA
:100D80000020FFF769FF681CC5B2802DF8DB601CEE
:100D9000C4B2082CE7DB70BD07E040F2375100BF5A
:100DA0000A00A1F10101FBD1401E0028F5D17047D6
:100DB00010B504462046FFF77AFF10BD70B5044613
:100DC0002546E11704EB11710911A4EB0111C8B21A
:100DD000FFF76DFF2546E11704EB11710911103182
:100DE000C8B2FFF764FF70BD10B504462020FFF7BE
:100DF0005EFF2046FFF75BFF10BD70B505460C4651
:100E00002120FFF754FF2846FFF751FF2046FFF748
:100E10004EFF70BD70B505460C462220FFF747FF18
:100E20002846FFF744FF2046FFF741FF70BD10B58D
:100E3000044644F04000FFF73AFF10BD10B50446E9
:100E40008120FFF734FF2046FFF731FF10BD10B5BA
:100E500004468D20FFF72BFF44F01000FFF727FF1B
:100E600010BD10B5044644F0A000FFF720FF10BDF0
:100E700010B5044644F0A400FFF719FF10BD10B5EB
:100E8000044644F0A600FFF712FF10BD10B504465B
:100E9000A820FFF70CFF2046FFF709FF10BD10B593
:100EA000044644F0AE00FFF702FF10BD10B5044643
:100EB00044F0B000FFF7FBFE10BD10B5044644F04F
:100EC000C000FFF7F4FE10BD10B50446D320FFF7B5
:100ED000EEFE2046FFF7EBFE10BD10B50446D52010
:100EE000FFF7E5FE2046FFF7E2FE10BD10B5044611
:100EF000D920FFF7DCFE2046FFF7D9FE10BD10B564
:100F00000446DA20FFF7D3FE44F00200FFF7CFFEDD
:100F100010BD10B50446DB20FFF7C9FE2046FFF7E1
:100F2000C6FE10BD10B5E320FFF7C1FE10BD08B529
:100F300001210820FFF724FD01214020FFF720FDBB
:100F40000320ADF800008DF8020010208DF803009A
:100F500069463B48FFF758FA4FF44070ADF800007F
:100F600003208DF8020010208DF8030069463348F5
:100F7000FFF74AFA02213248FFF7F3FA4FF4007103
:100F80002E48FFF7F0FA3220FFF706FF4FF400710A
:100F90002A48FFF7E6FAAE20FFF789FED520FFF7D3
:100FA00086FE8020FFF783FEA820FFF780FE3F200B
:100FB000FFF77DFED320FFF77AFE0020FFF777FED4
:100FC0004020FFF774FE8D20FFF771FE1420FFF71D
:100FD0006EFE2020FFF76BFE0220FFF768FEA120C7
:100FE000FFF765FEC820FFF762FEDA20FFF75FFE1D
:100FF0001220FFF75CFE8120FFF759FECF20FFF79C
:1010000056FED920FFF753FEF120FFF750FEDB20FC
:10101000FFF74DFE4020FFF74AFEA420FFF747FEF2
:10102000A620FFF744FEAF20FFF741FE0020FFF7A8
:101030007AFE00210846FFF764FE08BD000C01405F
:101040000018014070B505460C4621462846FFF7BA
:1010500058FE2046E11704EB5171C910A4EBC10200
:1010600001219140CEB2B02101EBE401C8B2FFF7FB
:101070001EFE102141EA1510FFF719FE05F00F00C2
:10108000FFF715FE3046FFF7E7FD70BD2DE9F04193
:1010900005460E464FF4047095FBF0F005B24FF490
:1010A000047096FBF0F006B201276CE007F1B00186
:1010B000C8B2FFF7FCFD0120FFF7F9FD1020FFF794
:1010C000F6FDDDB9002404E00020FFF7C5FD601C3B
:1010D000C4B23E2CF8DB3E2404E0FF20FFF7BCFD49
:1010E000601CC4B2402CF8DB402404E00020FFF771
:1010F000B3FD601CC4B27F2CF8DB42E0002D16DD8E
:10110000002404E00020FFF7A7FD601CC4B2C5F175
:101110003E00A042F6DCC5F13E00C4B204E0FF2070
:10112000FFF79AFD601CC4B23E2CF8DB29E0002DCD
:1011300027DA002404E00020FFF78EFD601CC4B213
:101140003E2CF8DB3E2404E0FF20FFF785FD601C09
:10115000C4B2402CF8DB402404E0FF20FFF77CFD04
:10116000601CC4B2C5F14000A042F6DCC5F14000ED
:10117000C4B204E00020FFF76FFD601CC4B27F2CF6
:10118000F8DB781CC7B2032F90DB05276CE007F172
:10119000B001C8B2FFF78BFD0120FFF788FD1020DA
:1011A000FFF785FDDEB9002404E00020FFF754FDC1
:1011B000601CC4B23E2CF8DB3E2404E0FF20FFF7A5
:1011C0004BFD601CC4B2402CF8DB402404E000203E
:1011D000FFF742FD601CC4B27F2CF8DB42E0002E1A
:1011E00016DD002404E00020FFF736FD601CC4B2C9
:1011F000C6F13E00A042F6DCC6F13E00C4B204E0F7
:10120000FF20FFF729FD601CC4B23E2CF8DB29E06B
:10121000002E27DA002404E00020FFF71DFD601CEB
:10122000C4B23E2CF8DB3E2404E0FF20FFF714FD9F
:10123000601CC4B2402CF8DB402404E0FF20FFF720
:101240000BFD601CC4B2C6F14000A042F6DCC6F142
:101250004000C4B204E00020FFF7FEFC601CC4B2F2
:101260007F2CF8DB781CC7B2072F90DBBDE8F0813C
:101270002DE9F0470446884615464FF00009002640
:10128000002741462046FFF73CFD1CE0E85D203882
:1012900000F0FF097E2C04DD002408F1010000F0BD
:1012A000FF08002609E009EB4901FE4A02EB410173
:1012B000885DFFF7D1FC701CC6B2062EF3DBA01DC3
:1012C000C4B2781CC7B2E85D0028DFD1BDE8F08762
:1012D0002DE9F04706460F46904600250024A1461A
:1012E00031E018F809002038C5B2782E02DD00265A
:1012F000781CC7B239463046FFF703FD002407E0EB
:1013000004EB0511E84A505CFFF7A6FC601CC4B270
:10131000082CF5DB781CC1B23046FFF7F2FC002444
:1013200008E004EB05110831DF4A505CFFF794FC3C
:10133000601CC4B2082CF4DB06F10800C6B209F147
:10134000010000F0FF0918F809000028C9D1BDE824
:10135000F0872DE9F04781460F469046002400268D
:1013600001256BE00024012513E0D048005D18F84A
:10137000061088420BD1CD49601C095C701C18F81E
:101380000000814203D1C4EBC400450005E0A01C6D
:10139000C4B2C648005D7F28E7DC00BFB9F1760F14
:1013A00003DD4FF00009781CC7B239464846FFF705
:1013B000A8FC012D1FD039464846FFF7A2FC0024A7
:1013C00006E0BB49485DFFF747FC6D1C601CC4B2DA
:1013D0000E2CF6DB781CC1B24846FFF792FC0024C5
:1013E00006E0B349485DFFF737FC6D1C601CC4B2D2
:1013F0000E2CF6DB1CE0701CC6B239464846FFF7DF
:1014000080FC002404E00020FFF726FC601CC4B22E
:10141000102CF8DB781CC1B24846FFF772FC0024A0
:1014200004E00020FFF718FC601CC4B2102CF8DBAD
:1014300009F10E0000F0FF09B01CC6B218F8060052
:1014400000288FD1BDE8F087F8B506460F4615464F
:10145000002427E0285D7F2814DD285D8DF800003A
:10146000601C285C8DF8010000208DF802006A469F
:1014700039463046FFF76DFF06F10E00C6B2A01CDC
:10148000C4B20FE0285D8DF8000000208DF8010047
:101490006A4639463046FFF71BFF06F10800C6B220
:1014A000601CC4B2285D0028D4D1F8BDF8B504464C
:1014B0000E461546E006040E8DF8005000208DF80B
:1014C00001006A4631462046FFF7D2FEF8BDF8B566
:1014D00006460F4615460024F006060E27E0285D56
:1014E0007F2814DD285D8DF80000601C285C8DF8D5
:1014F000010000208DF802006A4639463046FFF7A9
:1015000028FF06F10E00C6B2A01CC4B20FE0285D91
:101510008DF8000000208DF801006A4639463046FB
:10152000FFF7D6FE06F10800C6B2601CC4B2285D03
:101530000028D4D1F8BD2DE9FC4106468846144662
:101540001F460025002000900190F006060E42F292
:101550001070B4FBF0F00A21B0FBF1F201FB1200B5
:101560008DF800004FF47A70B4FBF0F0B0FBF1F2AC
:1015700001FB12008DF801006420B4FBF0F0B0FB19
:10158000F1F201FB12008DF802000A20B4FBF0F02A
:10159000B0FBF1F201FB12008DF803000A20B4FB4E
:1015A000F0F100FB11408DF8040000BF07E01DF8CA
:1015B00005003030C0B20DF80500681CC5B2052D1D
:1015C000F5DBC7F105006946421841463046FFF792
:1015D0007FFEBDE8FC812DE9FF5F86B014461D4605
:1015E0004FF0010A00200390049005904FF001098C
:1015F000002600BF8346002213462046294601F0FC
:10160000C5FD09D285F00040CDE900402046019992
:1016100001F071FD064604E02046294601F06BFD0D
:101620000646304601F049FD22462B46CDE9000131
:1016300001F056FC0746884600221E4B38464146BC
:1016400001F051FCCDE9000101F074FD834607E093
:1016500009EB89004FEA40090AF1010000F0FF0A96
:101660000A2096FBF0F090FBF9F00028F0D142F24E
:10167000107096FBF0F00A2190FBF1F201FB1200D2
:10168000C0B28DF80C004FF47A7096FBF0F090FB2E
:10169000F1F201FB1200C0B28DF80D00642096FB40
:1016A000F0F009E0883C000873400008B03E0008F4
:1016B000CF3E00080088C34090FBF1F201FB12000E
:1016C000C0B28DF80E000A2096FBF0F090FBF1F20C
:1016D00001FB1200C0B28DF80F000A2096FBF0F15A
:1016E00000FB1160C0B28DF810002E208DF81100A3
:1016F0004FF47A70BBFBF0F00A21B0FBF1F201FB72
:1017000012008DF812006420BBFBF0F0B0FBF1F288
:1017100001FB12008DF813000A20BBFBF0F0B0FBB8
:10172000F1F201FB12008DF814000A20BBFBF0F16E
:1017300000FB11B08DF8150000211498801D03AA3C
:101740001154894608E003A810F80900303003A9B5
:1017500001F8090009F10109B9F10A0FF3DB0022D0
:1017600013462046294601F011FD08D20AF1010076
:1017700000F0FF0A2D20CAF1050103AA50542E20C3
:101780008DF8110000211498801D03AA1154CAF18C
:10179000050003A94218DDE90601FFF769FD0AB05B
:1017A000BDE8F09F2DE9FF5F88B081461746984657
:1017B000DDE916BA012007900020049005900690FC
:1017C0000124002500BF00264FEAC9604FEA1069D6
:1017D0003846414601F08FFC0546284601F07EFC64
:1017E0003A464346CDE9000101F07AFBCDE902011A
:1017F0000022FE4BDDE9020101F075FBCDE900019D
:1018000001F098FC064606E004EB840044000798CB
:10181000401CC0B207900A20B5FBF0F0B0FBF4F01A
:101820000028F1D142F21070B5FBF0F00A21B0FBB4
:10183000F1F201FB12008DF810004FF47A70B5FB45
:10184000F0F0B0FBF1F201FB12008DF81100642002
:10185000B5FBF0F0B0FBF1F201FB12008DF81200C5
:101860000A20B5FBF0F0B0FBF1F201FB12008DF89D
:1018700013002E208DF815004FF47A70B6FBF0F0AF
:10188000B0FBF1F201FB12008DF816006420B6FBEC
:10189000F0F0B0FBF1F201FB12008DF817000A2006
:1018A000B6FBF0F0B0FBF1F201FB12008DF818006E
:1018B0000A20B6FBF0F100FB11608DF81900002141
:1018C0000AF1060004AA1154002405E004A8005DF2
:1018D000303004A90855641C0A2CF7DB2E208DF843
:1018E000150000210AF1060004AA1154CBF10500ED
:1018F00004A9421848460999FFF7EAFC0CB0BDE874
:10190000F09F2DE9F05F06460F4690461C46DDF835
:1019100028A04FF0000BE11704EB5171C910A4EBA4
:10192000C10131B92046E11704EB5171C1F3C7057C
:1019300006E02046E11704EB5171C910491CCDB2F5
:101940003D4614E029463046FFF7DBF9B1460AE090
:1019500059460BF1010B1AF80100FFF77DF909F167
:10196000010000F0FF09C145F2DB681CC5B2A542C9
:10197000E8DDBDE8F09F70B50026002411E02146A7
:101980001020FFF7BEF9102507E03146761C984A73
:10199000505CFFF761F9681CC5B2702DF5DB601C67
:1019A000C4B2082CEBDB70BD70B50026002411E03A
:1019B00021461C20FFF7A5F91C2507E03146761CBF
:1019C0008C4A505CFFF748F9681CC5B2582DF5DB0E
:1019D000601CC4B2082CEBDB70BDF8B506460F46A0
:1019E00014460020009002250DE00A2094FBF0F13F
:1019F00000FB11403030C0B20DF805000A2094FB06
:101A0000F0F0C4B26D1E002DEFDA6A46394630465A
:101A1000FFF75EFCF8BDF8B506460F4614460020F9
:101A2000009002250DE00A2094FBF0F100FB11402C
:101A30003030C0B20DF805000A2094FBF0F0C4B2BB
:101A40006D1E002DEFDA6A4639463046FFF710FC6E
:101A5000F8BD2DE9F04106460F46154600243946EB
:101A60003046FFF74EF900BF0AE005F1100101EB27
:101A70004101614A02EB4101085DFFF7EDF8641C8A
:101A8000062CF2DBBDE8F0812DE9F04705460E4655
:101A900014460A2094FBF0F100FB1140C7B20A2063
:101AA00094FBF0F00A2190FBF1F201FB120000F030
:101AB000FF08642094FBF0F000F0FF09A91CC8B2F5
:101AC0003A463146FFF7C5FF691CC8B24246314667
:101AD000FFF7BFFF4A4631462846FFF7BAFFBDE889
:101AE000F0872DE9F05F05468B4616463446002CFC
:101AF00000DA64424FF47A7094FBF0F0C7B24FF40E
:101B00007A7094FBF0F100FB1140642190FBF1F03E
:101B100000F0FF08642094FBF0F100FB11400A2163
:101B200090FBF1F000F0FF090A2094FBF0F100FBBC
:101B3000114000F0FF0AA91DC8B23A465946FFF706
:101B400088FF05F10C01C8B242465946FFF781FFF4
:101B500005F11201C8B24A465946FFF77AFF05F16E
:101B60001801C8B252465946FFF773FFBDE8F09F0F
:101B70002DE9F05F05460E46144642F21070B4FBA4
:101B8000F0F0C7B242F21070B4FBF0F100FB11406C
:101B90004FF47A71B0FBF1F000F0FF080846B4FB97
:101BA000F0F100FB11406421B0FBF1F000F0FF09FF
:101BB0006420B4FBF0F100FB11400A21B0FBF1FA04
:101BC0000A20B4FBF0F100FB114B3A46314628469F
:101BD000FFF73FFFA91DC8B242463146FFF739FF64
:101BE00005F10C01C8B24A46314607E00088C340FF
:101BF0002C00002063460008883C0008FFF729FFFE
:101C000005F11201C8B252463146FFF722FF05F135
:101C10001801C8B25A463146FFF71BFFBDE8F09FD6
:101C200008B501210820FEF7ABFE4020ADF800000A
:101C300003208DF8020014208DF803006946BE4889
:101C4000FEF7E2FB8020ADF8000003208DF80200D3
:101C500014208DF803006946B748FEF7D5FB08BD90
:101C600000BF70474FF4B47000E0401E0028FCD164
:101C7000704741F2883000E0401E0028FCD17047D8
:101C800000B58020AC491031086040200860FFF7A3
:101C9000E7FFA9480830006808B9012000E00020EB
:101CA00000F0800008B1002000BD8020A24914315E
:101CB0000860FFF7D5FFA0480830006800F08000FA
:101CC00008B10020F0E780209B4914310860FFF73D
:101CD000C7FF0120E8E700B54020974914310860AC
:101CE000FFF7BEFF8020944914310860FFF7B8FF6A
:101CF0004020914910310860FFF7B2FF80208E49E3
:101D000010310860FFF7ACFF00BD00B540208A49E4
:101D100014310860FFF7A4FF802087491431086060
:101D2000FFF79EFF4020844910310860FFF798FFBD
:101D30004020814914310860FFF792FF00BD00B5D3
:101D400040207D4914310860FFF78AFF80207A49DE
:101D500010310860FFF784FF402077491031086098
:101D6000FFF77EFF4020744914310860FFF778FFC9
:101D700000BD00B54020704914310860FFF770FFC6
:101D800080206D4910310860FFF76AFF40206A49E2
:101D900010310860FFF764FF67480830006800F002
:101DA000800038B14020644914310860FFF758FFC3
:101DB000002000BD4020604914310860FFF750FF4B
:101DC0000120F6E700B508211BE040225A4B1433EE
:101DD0001A60FFF745FF00F0800222B18022564BC7
:101DE00010331A6003E08022534B14331A6042060A
:101DF000100EFFF735FF40224F4B10331A60FFF7EC
:101E00002FFF0A00A1F10103D9B2DED140224A4BD3
:101E100014331A6000BD00B5082100208022464B13
:101E200010331A6015E04206100E4022424B143364
:101E30001A60FFF715FF40223F4B10331A60FFF77F
:101E40000FFF3D4A0832126802F080020AB140F0EA
:101E500001000A00A1F10103D9B2E4D14022364BBE
:101E600014331A6000BD70B506460C461546FFF7E0
:101E700007FF08B9002070BD3046FFF7A3FFFFF74A
:101E800078FF18B9FFF727FF0020F4E72046FFF797
:101E900099FFFFF76EFF2846FFF794FFFFF769FFF2
:101EA000FFF719FFFFF7E5FE0120E4E730B505462F
:101EB0000C46FFF7E5FE08B9002030BD2846FFF7C5
:101EC00081FFFFF756FF18B9FFF705FF0020F4E781
:101ED0002046FFF777FFFFF74CFFFFF7FCFEFFF709
:101EE000C8FE0120E9E770B504460D46FFF7C8FEBD
:101EF00008B9002070BD2046FFF764FFFFF739FFE7
:101F000018B9FFF7E8FE0020F4E72846FFF75AFF6C
:101F1000FFF72FFFFFF7B4FE611CC8B2FFF752FFB7
:101F2000FFF727FFFFF777FF0646FFF708FFFFF7EA
:101F3000D2FE3046DEE70000000C01402DE9FF5FD5
:101F40008EB014461D46DDE91CABCDE90CABCDE9E6
:101F50000A4500BFFE4803C8CDE90801FD49DDE997
:101F60000A2303C900F018FF8046894640464946C7
:101F7000DDE90C2300F010FF02460B46CDE902011B
:101F80004046494601F021F8CDE90401DDE9082386
:101F9000DDE90E0100F0A1FFCDE90001DDE9042338
:101FA00000F0A1FFCDE90201DDE9082300F0F4FE15
:101FB00006460F460020E849DDE9042300F08DFFC6
:101FC00042464B46CDE9020100F08DFFCDE9060106
:101FD000E04ADDE9060103C2DD48C0C030463946AB
:101FE00012B0BDE8F09F2DE9FF5F8EB014461D468C
:101FF000DDE91CABCDE90CABCDE90A4500BFD74804
:1020000003C8CDE90801D649DDE90A2303C900F078
:10201000C3FE8046894640464946DDE90C2300F070
:10202000BBFE02460B46CDE902014046494600F0A0
:10203000CCFFCDE90401DDE90823DDE90E0100F064
:102040004CFFCDE90001DDE9042300F04CFFCDE9B0
:102050000201DDE9082300F09FFE06460F4600203E
:10206000BD49DDE9042300F038FF42464B46CDE987
:10207000020100F038FFCDE90601B94ADDE90601A9
:1020800003C2B648C0C03046394612B0BDE8F09F22
:102090002DE9FF5F8EB014461D46DDE91CABCDE98E
:1020A0000CABCDE90A4500BFAE4803C8CDE9080135
:1020B000AD49DDE90A2303C900F06EFE804689467A
:1020C00040464946DDE90C2300F066FE02460B4619
:1020D000CDE902014046494600F077FFCDE9040111
:1020E000DDE90823DDE90E0100F0F7FECDE900018E
:1020F000DDE9042300F0F7FECDE90201DDE9082364
:1021000000F04AFE06460F4600209349DDE904230D
:1021100000F0E3FE42464B46CDE9020100F0E3FE4B
:10212000CDE90601904ADDE9060103C28D48C0C031
:102130003046394612B0BDE8F09F2DE9F05F044605
:102140004FF07F594FF07C51204600F0B5FD82469C
:1021500025462E468548A0EB66063546294650465C
:1021600000F0AAFD8346294600F0A6FD80464946B8
:1021700000F09FFD0746294600F09EFD05462846D3
:10218000BDE8F09F10B504460021204601F042F85A
:1021900002D284F0004010BD2046FCE72DE9F0415A
:1021A00004462146204600F087FD07464FF0804157
:1021B00000F0B4FD06464FF07E5100F07AFD054672
:1021C0002846BDE8F0812DE9F0410446214620462D
:1021D00000F072FD8046214600F06EFD074664491E
:1021E00000F09CFD0646214600F063FD05462846AA
:1021F000BDE8F0812DE9F05F82464FF0000B002131
:10220000504601F007F801D28AF0004A5949504679
:1022100001F00AF801D2DFF85CA1504600F0A3FFFC
:102220008046554A554B00F05EFE064600224A4B5A
:1022300000F056FE044600F0D1FF834600215846C8
:1022400000F0E8FF01D24FF0000B5846BDE8F09FC8
:102250002DE9FC4100F0E0FB4949B1F9000000F034
:102260002CFF06460F4600214648434A464BCDE91F
:10227000001030463946FFF761FE044600F03BFF90
:1022800000B23F49C880B1F9020000F016FF0646CF
:102290000F4600213B48384A3B4BCDE90010304601
:1022A0003946FFF7A0FE044600F025FF01B234488E
:1022B00001810146B1F9040000F0FFFE06460F4619
:1022C000002130482C4A304BCDE9001030463946C9
:1022D000FFF7DEFE044600F00EFF01B22848418100
:1022E000BDE8FC810FB59DB028480168006800F08A
:1022F000E3FC1390264801682448006800F0DCFCE9
:102300001290244801682148006800F0D5FC119023
:102310001F480168006800F0CFFC10901E4801685B
:102320001B48006800F0C8FC0F901A48016800685C
:1023300000F0C2FC0E90184801681648006800F0D2
:10234000BBFC0D9014480168006800F0B5FC25E066
:1023500050030020580300200000F03F60030020DD
:10236000680300207003002078030020DF59375FE6
:102370000000C040CDCC4C3F7B14AE47E17AF43F27
:102380009003002000001840E17A943F30030020C1
:1023900034030020380300203C0300200C902299D5
:1023A000209800F089FC0A90239900F085FC002118
:1023B0000B9000F02FFF01D121B000BD23990846FA
:1023C00000F07AFC0A902299084600F075FC08900B
:1023D0002099084600F070FC0790089900F014FC62
:1023E00009900A9900F010FC0B90FFF7A6FE1C90D4
:1023F0001C99209800F060FC20901C99229800F015
:102400005BFC22901C99239800F056FC23901199B4
:102410000F9800F04BFC4FF080410B9000F04CFC0B
:102420001B900D99129800F0EFFB4FF080410B903C
:1024300000F042FC1A901099139800F037FC0A90B3
:102440000E9900F033FC0B900C9900F0DDFB199015
:102450001A99239800F030FC0B901999229800F0FB
:102460002BFC0A900B9900F021FC189019992098E8
:1024700000F022FC0B901B99239800F01DFC0A90A1
:102480000B9900F013FC17901B99229800F014FC94
:102490000B901A99209800F00FFC0A900B9900F00D
:1024A00005FC16901898FFF7A5FE0990189900F002
:1024B00003FCFD490A9000F0FFFB0B90FB4801680C
:1024C0000B9800F0A1FBF94908601798FFF792FEFE
:1024D0000990179900F0F0FBF3490A9000F0ECFB2B
:1024E0000B90F34801680B9800F08EFBF0490860F0
:1024F0001698FFF77FFE0990169900F0DDFBEA4978
:102500000A9000F0D9FB0B90EA4801680B9800F0A4
:102510007BFBE84908601898FFF76CFE4FF080419C
:10252000089000F0C9FB0990189900F0C5FB0A90CB
:102530001D9900F069FB0B90DC4801680B9800F0D6
:1025400063FB1D901798FFF755FE4FF080410890F0
:1025500000F0B2FB0990179900F0AEFB0A901E99AB
:1025600000F052FB0B90D24801680B9800F04CFB36
:102570001E901698FFF73EFE4FF08041089000F045
:102580009BFB0990169900F097FB0A901F9900F0A9
:102590003BFB0B90C74801680B9800F035FB1F9080
:1025A000C5481F99006800F087FB0990C3481E9931
:1025B000006800F081FB0790C148006880F000408F
:1025C00005901D9900F078FB0690079900F06EFBCE
:1025D0000890099900F06AFBBA490A9000F06CFB78
:1025E0000B90B94801680B9800F00EFBB6490860E3
:1025F000B1481E99006800F05FFB0990AF481F9931
:10260000006800F059FB0790AF4801681D9800F082
:1026100053FB0690079900F0F7FA0890099900F02B
:1026200045FBA8490A9000F047FB0B90A4480168BD
:102630000B9800F0E9FAA24908609F4801681D98CC
:1026400000F03AFB09909E481F99006800F034FBA7
:1026500007909D481E99006800F02EFB0690079990
:1026600000F024FB0890099900F0CEFA95490A90F1
:1026700000F022FB0B90914801680B9800F0C4FA1F
:102680008E490860084601681D9800F015FB099006
:102690008B481E99006800F00FFB07908A481F992D
:1026A000006800F009FB0690079900F0ADFA089069
:1026B000099900F0FBFA83490A9000F0FDFA0B90AB
:1026C0007D4801680B9800F09FFA7B4908601099DB
:1026D000139800F099FA09900E9900F095FA0A9073
:1026E0000C9900F091FA0B90FFF727FD1C907648AB
:1026F0001C99006800F0E0FA7349086070481C9962
:10270000006800F0D9FA6E4908606C481C990068AE
:1027100000F0D2FA6949086067481C99006800F027
:10272000CBFA654908604FF080400E9900F0C4FA7A
:1027300003904FF04040109900F0BEFA02900399C8
:1027400000F0B4FA4FF07E51049000F05DFA05906D
:1027500000F009FDCDE908014FF08040129900F02A
:10276000ABFA04904FF080400D9900F0A5FA039069
:10277000049900F049FA059000F0F5FCCDE9060156
:10278000DDE9082301F09AF9CDE90A0100F026FD00
:1027900014904FF08040119900F08EFA06904FF09F
:1027A00040400F9900F088FA0590069900F02CFA45
:1027B000079000F0D8FCCDE9080100F02FFFCDE92B
:1027C0000A0100F00BFD1590149800F0CCFC3F4A74
:1027D0003F4BCDE9080100F086FBCDE90A0100F08E
:1027E000FDFC1490159800F0BEFC384A384BCDE93A
:1027F000080100F078FBCDE90A0100F0EFFC15902C
:10280000344915980860149848603348406C099022
:1028100000F0A9FC314A324BCDE90A0100F0CAFCB4
:102820000BD92D48406C099000F09DFC2B4A2D4B94
:10283000CDE90A0100F0AAFC23D82748406C01909A
:1028400000F091FC214A224BCDE9020100F04BFB44
:10285000224A254BCDE9040100F045FBCDE90801F2
:102860001C488068059000F07EFCCDE90601DDE99A
:10287000082300F091FACDE90A0100F0AFFC1549F8
:1028800088601448806819490B9000F0CDFC06D38D
:102890001048806816490B9000F0BCFC02D2002062
:1028A0000C49886000BF87E5A69BC43A400300201E
:1028B00044030020480300203C030020380300208C
:1028C000340300200AD7233B3003002031B3CF6309
:1028D00094A94C4084030020900300207B14AE4751
:1028E000E17A943FE17A94BFE17A743F0000B44307
:1028F0000000B4C37CB5FFF7ABFC0E49B1F90A0088
:1029000000F0D2FB04460B49B1F9080000F0CCFB03
:1029100005460849B1F9060000F0C6FB0646054B1E
:10292000CDE900545A6C196CD86B3346FFF7DAFCCA
:102930007CBD00009003002010B5002400226B2114
:10294000D020FFF790FA2044C4B207221921D020EA
:10295000FFF789FA2044C4B203221A21D020FFF7DE
:1029600082FA2044C4B210221B21D020FFF77BFA48
:102970002044C4B209221C21D020FFF774FA20445D
:10298000C4B210BD10B53B21D020FFF7ACFA9A4974
:1029900008703C21D020FFF7A6FA974948703D21E6
:1029A000D020FFF7A0FA944988703E21D020FFF78D
:1029B0009AFA9149C8703F21D020FFF794FA8E49C6
:1029C00008714021D020FFF78EFA8B4948714321CE
:1029D000D020FFF788FA884908724421D020FFF7F9
:1029E00082FA854948724521D020FFF77CFA824956
:1029F00088724621D020FFF776FA7F49C8724721B6
:102A0000D020FFF770FA7C4908734821D020FFF7E7
:102A10006AFA7949487310BD2DE9F05FFFF7B2FFFC
:102A2000754840787449097840EA012000B273493A
:102A300008807148C0787049897840EA012000B266
:102A40006E4948806C4840796B49097940EA012019
:102A500000B26A4988806848407A6749097A40EA42
:102A6000012000B2654988846348C07A6249897A46
:102A700040EA012001B26148C1845F48407B5E4961
:102A8000097B40EA012001B25C4801850146B1F9A9
:102A9000360000F012FB0646594A5A4B00F023FA62
:102AA000804689465549B1F9240000F006FB0646E8
:102AB000534A544B00F017FA824642464B4600F008
:102AC0000CFA044600F08AFB4C49C863B1F938009F
:102AD00000F0F3FA06464A4A4A4B00F004FA04466C
:102AE0000D464649B1F9260000F0E7FA0646444A89
:102AF000444B00F0F8F9804622462B4600F0EDF9F1
:102B0000824600F06BFB01463C4801640146B1F986
:102B10003A0000F0D2FA0646394A3A4B00F0E3F99F
:102B200004460D463549B1F9280000F0C6FA0646BC
:102B3000334A344B00F0D7F9804622462B4600F04A
:102B4000CCF9824600F04AFB01462C484164BDE8BE
:102B5000F09F2DE9F04141F288370024002500263E
:102B60000021264841858185C1852AE0FFF70AFFBB
:102B70002148407A2049097A40EA012000B21F49E1
:102B800088841D48C07A1C49897A40EA012001B234
:102B90001A48C1841848407B1749097B40EA012044
:102BA00001B216480185B0F9240004441348B0F975
:102BB000260005441148B0F9280006440120FEF71C
:102BC00003F83800A7F10107D0D140F6B83094FBE4
:102BD000F0F001B20948C18640F6B83095FBF0F03C
:102BE00001B20648018740F6B83096FBF0F001B21A
:102BF00002484187BDE8F081D803002090030020FF
:102C00001BE20E8A9C74413FF0B480EA0102D40FAB
:102C10004200B2EB410F02D20246084611464A007A
:102C200042D0C30DDDB2C1F3C752AD1A202D35DA43
:102C3000C1F3160141F4000204B15242C5F120066D
:102C400002FA06F12A411044B3EBD05F23D0C4B19D
:102C5000012DA0EBC35009DCF0BC4FF0004202EAAA
:102C6000C352DBB200F5000000F022BB400000F1CF
:102C7000807000EBC350A0F1807040EAD170490031
:102C800009E0490841EAC071A0EBC35000F500001B
:102C9000400800EBC350F0BC00F001BB61420122D0
:102CA00002EB4101001BF6E7F0BC704781F00041E8
:102CB000AAE780F00040A7E780EA010210B502F021
:102CC0000043400022D04A001FD0010E01EB1261E8
:102CD000C0F35600C2F3560240F4000042F4000272
:102CE000A0FB022000047F39140400D0401C50EAED
:102CF000124001D44000491EC2B20C0604EBD010B1
:102D0000401C4008802A02D003E0002010BD20F0C3
:102D10000100002900DA0020184310BD30B480EA19
:102D2000010202F0004530F0004221F0004013D0D3
:102D300090B1C30DD40DC2F31601C0F31600E41A0E
:102D400041F4000140F400027D34914201D3641C3F
:102D500000E04900002C02DA30BC002070474FF43C
:102D600000000023914201D3891A034340084FEA2F
:102D70004101F7D151B1914202D14FF0004105E03C
:102D800002D24FF0010101E06FF0010103EBC450EA
:102D9000284430BC00F083BA2DE9FE4F804681EA1A
:102DA0000300C00F0C46009021F0004123F00045C5
:102DB000B8EB0200A94105D24046214690461C4688
:102DC0000B46024623F00040104347D0270DC7F3BF
:102DD0000A00C3F30A510290401A019040286BDAAE
:102DE000C3F3130040F4801B0098924620B10023E7
:102DF000D2EB030A63EB0B0B01985946C0F140027A
:102E0000504600F01BFA06460D4650465946019AB8
:102E100000F033FA10EB08006141002487EA1152F8
:102E200084EAE7731A4340D0009A62B3019A012AF8
:102E30004FEA075215DC001B61EB02014FF0004224
:102E400002EA0752CDE90042001C41F580113246EA
:102E50002B4600F068FA03B0BDE8F08F40462146EB
:102E6000F9E7001B61EB0201001C41F5801300181B
:102E70005B412018A2F5001747EB030140EAD5702B
:102E8000B6196D4111E06D084FEA360645EAC07586
:102E90004FEA0752001B61EB0201001C41F5801153
:102EA00049084FEA30000019514132462B4603B021
:102EB000BDE8F04F00F02ABA00980122400000233C
:102EC000D0EB020263EBE073009821464FEAE07416
:102ED000B8EB000061EB0401E9E783F000435BE736
:102EE00081F0004158E72DE9FE4F81EA030404F028
:102EF000004421F0004100944FF0000B23F0004308
:102F000050EA01045ED052EA03045BD0C3F30A54D2
:102F1000C1F30A552C44A4F2F3340194A0FB0254EB
:102F2000C1F3130141F48011C3F3130343F480137D
:102F300001FB024400FB034E840A970A44EA8154D1
:102F400047EA8357A4FB076802958D0A05FB0785AE
:102F50004FEA932C04FB0C542705029D4FEA0658B8
:102F600047EA1637B5EB08056EEB070C870E920E95
:102F700047EA811742EA8312A7FB0201B6EB0B0175
:102F800064EB00042B0D43EA0C335E1844EB1C5039
:102F9000DA465146E7FB0201C5F313044FEA0B334F
:102FA00043EA14534FEA0432019C43EA0603A4F1B6
:102FB0000C040294009CCDE900B400F0B4F903B015
:102FC000BDE8F08F00200146F9E72DE9F04D81EAD8
:102FD000030404F0004B21F0004514464FF0000AB2
:102FE00023F0004150EA050220D054EA01021DD02E
:102FF000C5F30A570246C5F31303C1F31300C1F327
:103000000A5640F4801543F48013A7EB0608101B02
:10301000D64608F2FD3873EB050002D308F101082B
:1030200001E092185B41B8F1000F03DA002001467D
:10303000BDE8F08D00204FF48011064684460EE076
:10304000171B73EB050705D3121B63EB0503064340
:103050004CEA010C49084FEA300092185B4150EAF3
:103060000107EDD152EA030012D082EA040083EA9C
:103070000501084305D0101BAB4106D201220023F5
:1030800006E000224FF0004302E06FF0010253100F
:103090001AEB06004CEB085110EB0A0041EB0B0158
:1030A000BDE8F04D00F032B9C10F80EAE07008448D
:1030B000CA079623002100F0FBB80EB5C10F80EAC5
:1030C000E0700844CA07002140F233438DE80E0047
:1030D0000A460B4600F027F903B000BD0EB540F2DA
:1030E000334102910021CDE900110A460B4600F060
:1030F0001AF903B000BD70B5C1F30A5201F00045E2
:103100000024C1F3130140F2FF3341F480119A42CD
:1031100001DA002070BD40F233439A42A2F23342FA
:1031200003DC524200F099F800E090402C43F1D0CB
:10313000404270BDC1F30A5210B5C1F3130140F211
:10314000FF3341F480119A4201DA002010BD40F2B1
:1031500033439A42A2F2334203DC524200F07DF83C
:1031600010BD904010BD00F0004230F000400AD089
:10317000C10D01F56071C0F3160042EA0151C208A9
:1031800040071143704700200146704730B50029C1
:1031900004DB4FF00044404264EB0101002B04DBF0
:1031A0004FF00044524264EB03038B4208BF82425B
:1031B00030BD000030B5002904DB4FF00044404230
:1031C00064EB0101002B04DB4FF00044524264EB3E
:1031D0000303994208BF904230BD000001F0004354
:1031E00030B421F0004150EA010206D00A0DA2F5E8
:1031F0006072C1F31301002A02DC30BC002070476A
:10320000440F44EAC104C100E01830BC00EBC250D6
:1032100000F045B8002801DBC0F10040002901DBC7
:10322000C1F1004181427047002801DBC0F100403C
:10323000002901DBC1F1004188427047202A04DBEC
:10324000203A00FA02F1002070479140C2F12003B9
:1032500020FA03F3194390407047202A04DB203AF8
:1032600021FA02F00021704721FA02F3D040C2F1A6
:1032700020029140084319467047202A06DBCB17ED
:10328000203A41FA02F043EAE07306E041FA02F321
:10329000D040C2F1200291400843194670470029EE
:1032A000A8BF7047401C490008BF20F001007047CC
:1032B00010B4B0FA80FC00FA0CF050EA010404BF2C
:1032C00010BC704749B1CCF1200421FA04F411FA82
:1032D0000CF118BF012121430843A3EB0C01CB1DC6
:1032E0004FEA00614FEA102042BF002010BC704737
:1032F00000EBC35010440029A4BF10BC7047401C11
:10330000490008BF20F0010010BC704710B5002B29
:1033100008DA401C41F1000192185B411A4301D1C7
:1033200020F0010010BD2DE9F04D92469B4611B1F1
:10333000B1FA81F202E0B0FA80F220329046FFF753
:103340007DFF04460F4640EA0A0041EA0B0153465E
:103350005A46084313D0114653EA010019D0C8F168
:1033600040025046FFF779FF05460E465046594643
:103370004246FFF763FF084305D0012004E02046E2
:103380003946BDE8F08D0020054346EAE0762C433F
:1033900037430A986305E40AA0EB08000022FD0AFF
:1033A00044EA47540A3002D500200146E9E7010506
:1033B00010196941DDE9084500196941BDE8F04D82
:1033C000A4E770B521F0004303430CD0C1F30A55C4
:1033D0000024D5EB040564EB0403D617AD1AB34102
:1033E00002DB0020014670BD201841EB025170BD88
:1033F000064C074D06E0E06840F0010394E8070042
:1034000098471034AC42F6D3FCF796FE38490008D2
:10341000584900082DE9F04D00231A461B1A8A412D
:1034200003DB00200146BDE8F08DC1F30A52C1F371
:10343000130141F480154FF0000BD10702D10018A1
:103440006D41521E0027044640F2FF11384601EB41
:10345000620A3E468046024600204FF48011FFF784
:10346000FCFEC2197141BB1846EB0100B4EB030C22
:1034700075EB000C04D3E41A65EB000517460E4605
:10348000241908F101006D4180463428E3DDF91963
:1034900046EB0600091BA84103D24FF0FF3213464A
:1034A00001E0002213461BEB070046EB0A51BDE882
:1034B000F04DFFF72BBF70B58C1810F8015B15F0BD
:1034C000070301D110F8013B2A1106D110F8012B96
:1034D00003E010F8016B01F8016B5B1EF9D12B07BB
:1034E00005D40023521E0DD401F8013BFAE710F871
:1034F000013BCB1A921C03E013F8015B01F8015B5E
:10350000521EF9D5A142D8D3002070BD490050EA1F
:10351000C12018BF04204A0D18BF40F0010040F23E
:10352000FF72B2EB515F08BF40F00200012808BFF4
:10353000052070472DE9F0414F1E00EBC7010446FE
:10354000D1E9000115461E4637F006020DD02A4685
:103550003346FFF7C8FC7F1E04EBC703D3E9002303
:10356000FFF71AFC37F00602F1D1022F25D0042F05
:1035700013D0062F18BFBDE8F0812A463346FFF767
:10358000B2FCD4E90A23FFF707FC2A463346FFF7CB
:10359000AAFCD4E90823FFF7FFFB2A463346FFF7CE
:1035A000A2FCD4E90623FFF7F7FB2A463346FFF7D0
:1035B0009AFCD4E90423FFF7EFFB2A463346FFF7D2
:1035C00092FCD4E90223FFF7E7FB2A463346FFF7D4
:1035D0008AFCD4E90023BDE8F041FFF7DDBB000021
:1035E000024A00201107FFF7ECBE000001FDFFFFBB
:1035F00002E008C8121F08C1002AFAD170477047BC
:10360000002001E001C1121F002AFBD17047000019
:103610000149086070470000800300202DE9F04D4B
:10362000904F21F0004A86B005460C46BA4530DB83
:10363000AAEB070028430CD08B48824501DC1CD143
:10364000DDB106B02846BDE8F04D4FF00102FFF7AE
:10365000B8BE864A864B2846FFF745FC07460E460D
:10366000844A854B28462146FFF73DFC06B03A4682
:103670003346BDE8F04DFFF78FBB0120FFF7C8FFD1
:1036800006B00022BDE8F04D134610461146FFF784
:103690009CBC7A48824542DABAF1795F0BDA284657
:1036A000FFF734FF042808BFFFF79AFF284606B04B
:1036B0002146BDE8F08D2A460B461046FFF713FC65
:1036C000834602466E480E460B4606217844FFF7B5
:1036D00031FF5A463346FFF706FC804669488A4662
:1036E0005A46334604217844FFF724FF5A463346AE
:1036F000FFF7F9FB00223B46FFF74EFB02460B4665
:1037000040465146FFF761FC2A462346FFF7EBFB94
:1037100006B02A462346BDE8F04DFFF73DBB2846DC
:1037200024F0004100223D463B46FFF7D9FB4FF015
:10373000FF32FFF746FE0646024653480F460B4649
:1037400006217844FFF7F6FE32463B46FFF7CBFBF7
:10375000CDE900014D4832463B4604217844FFF74D
:10376000E9FE32463B46FFF7BEFB00222B46FFF741
:1037700013FB834602913046394600F05FFA8046DB
:1037800043480D46504517DCDDE900015A46029BCF
:10379000FFF71BFC42462B46FFF7A5FB42462B4694
:1037A000FFF7FAFA0122FFF70CFE304A304BFFF721
:1037B00094FB304A304B4CE04FF0000A52460B4627
:1037C0004046FFF7E9FACDE9031052462B46104672
:1037D0001946FFF788FB32463B46FFF781FBDDE9E0
:1037E0000332FFF7F2FB06460F46DDE900015A46B9
:1037F000029BFFF7EAFB83460091012230463946DF
:10380000FFF7DFFD194A1A4BFFF76AFB06460F4622
:10381000012240462946FFF7D4FD5A46009BFFF798
:1038200062FB32463B46FFF758FB07460E46012235
:1038300050462946FFF7C5FD0E4DDFF858802A4651
:103840004346FFF74DFB3A463346FFF749FB2A460E
:103850004346FFF745FB002CD8BF81F0004106B07E
:10386000BDE8F08D0000F03F0000F07F075C1433EE
:1038700026A6913C182D4454FB21F93F0000E03F5F
:10388000781100008E1100000211000018110000D4
:103890003333EF3FFB21E93F2DE9F84F04460D4656
:1038A00021F0004000917449814213DC7349884241
:1038B00001DC08D13CB120462946BDE8F84F4FF065
:1038C0000102FFF77EBD6E48002DCCBF6D496E49E9
:1038D000BDE8F88F6D49814211DD6D498142D8BF45
:1038E0004FF0FF366DDD20462946FFF70FFE042816
:1038F00008BFFFF775FE20462946BDE8F88F6549E9
:10390000654F25F00045814233DD6449814219DD70
:10391000002632464FF0804320462946FFF73CFA06
:1039200080468A46012220462946FFF74AFD0022AA
:103930003B46FFF7D2FA42465346FFF746FB0446A2
:103940000D463EE001260022BA463B462046294667
:10395000FFF722FA80460F460022534620462946AA
:10396000FFF7BBFA42463B46FFF72FFB04460D46E6
:1039700027E04B4981421BDDDFF828810226002227
:10398000434620462946FFF7AEFA00223B46FFF7A2
:1039900003FA07468A460022434620462946FFF797
:1039A0009CFA3A465346FFF710FB04460D4608E0E2
:1039B000032622462B4600203B49FFF706FB044620
:1039C0000D4622462B4610461946FFF78CFA8B46C9
:1039D000824602460B46FFF786FA07460246334800
:1039E00088460B4606217844FFF7A4FD52465B4605
:1039F000FFF779FA82462E488B463A464346052120
:103A00007844FFF797FD3A464346FFF76CFA0246C3
:103A10000B46002E504659460CDAFFF7BDF92246F8
:103A20002B46FFF760FA01B022462B46BDE8F04F67
:103A3000FFF756BAFFF7B0F922462B46FFF753FAC5
:103A40001C4A7A4402EBC603D3E90023FFF745FA88
:103A500022462B46FFF741FA174A7A4402EBC60387
:103A6000D3E90023FFF73CFA009A002AB8BF81F09F
:103A70000041BDE8F88F0000000010440000F07F16
:103A8000182D4454FB21F93FFB21F9BF0000DC3F16
:103A90000000203E0000F33F0000F03F0000E63F42
:103AA000008003400000F83F0000F0BF160F000048
:103AB000D40E0000720E00003A0E00002DE9F04D09
:103AC0009446CCF1000423F000464CEA0404524F23
:103AD00046EAD4749A46884621F00042BC4206D891
:103AE000454240EA050442EAD474BC4204D9BDE828
:103AF000F04D6246FFF750B9AAF14055A5F17F6538
:103B000055EA0C040BD0022404EAAA74434DDFF8F2
:103B100010E144EAD87452EA000B04D00CE0BDE88E
:103B2000F04DFFF7B9BE002C14BF012CBDE8F08D9D
:103B3000022C30D0032C32D056EA0C0B0AD0BE42F5
:103B400020D1BA4209D126F0804622F08042334685
:103B5000114617E000291ADB25E0DFF8C8B0FB4466
:103B6000002C04BFDBE90001BDE8F08D012C02BF91
:103B7000DBE9000181F00041BDE8F08D022C0AD0A4
:103B8000032C0CD0BA4212D1B8F1000F0BDA234843
:103B90002549BDE8F08D28462449BDE8F08D28462A
:103BA0007146BDE8F08D1D482149BDE8F08D921B9E
:103BB00012153C2AC4BF19481D490EDCBAF1000F8A
:103BC000BEBF12F13C0F0020014606DB6246FFF744
:103BD000FCF921F00041FFF75FFE002C08BFBDE8B3
:103BE000F08D012C04BF81F00041BDE8F08D114A39
:103BF000114B022C07D0FFF770F92A46BDE8F04DB3
:103C00000A4BFFF76AB9FFF768F92A46BDE8F04D9D
:103C1000064BFFF765B900000000F07F182D4454F3
:103C2000FB2109C0CE0D0000FB21F9BFFB2109409B
:103C3000FB21F93F075C143326A6A13C2DE9F04196
:103C400006460F46FFF7E6FB04000D4618BF0120AD
:103C5000284320F00040C0F17F6000F1E040C00F39
:103C60000ED0301C18BF0120384320F00040C0F1B6
:103C70007F6000F1E040C00F04BF0120FFF7C8FCE7
:103C800020462946BDE8F081000000000000000049
:103C9000002F000000000700070000147F147F14AD
:103CA00000242A7F2A120062640813230036495533
:103CB000225000000503000000001C22410000000B
:103CC00041221C000014083E08140008083E0808A1
:103CD000000000A0600008080808080800006060F4
:103CE0000000002010080402003E5149453E00003B
:103CF000427F4000004261514946002141454B311D
:103D0000001814127F10002745454539003C4A49E8
:103D1000493000017109050300364949493600065A
:103D20004949291E000036360000000056360000C2
:103D3000081C2A4908080014141414140808492AF5
:103D40001C0800020151090600324959513E007C0D
:103D50001211127C007F49494936003E41414122FF
:103D6000007F4141221C007F49494941007F0909E8
:103D70000901003E4149497A007F0808087F000098
:103D8000417F4100002040413F01007F0814224153
:103D9000007F40404040007F020C027F007F04080B
:103DA000107F003E4141413E007F09090906003E67
:103DB0004151215E007F0919294600464949493190
:103DC0000001017F0101003F4040403F001F2040B3
:103DD000201F003F4038403F006314081463000771
:103DE0000870080700615149454300007F414100C8
:103DF00000552A552A55000041417F000402FF0268
:103E00000400002040FF40200000010204000020C8
:103E100054545478007F4844443800384444442083
:103E200000384444487F00385454541800087E0930
:103E300001020018A4A4A47C007F080404780000F8
:103E4000447D4000004080847D00007F10284400B5
:103E50000000417F4000007C04180478007C0804C6
:103E6000047800384444443800FC24242418001802
:103E7000242418FC007C08040408004854545420EE
:103E800000043F444020003C4040207C001C204077
:103E9000201C003C4030403C004428102844001CBA
:103EA000A0A0A07C004464544C44141414141414B2
:103EB000D6C7C4DCB3B5CAD7D1A1D2BABEA7CAD2BD
:103EC000CEC2B6C8B0B4BCFCB4CEB5E7D1B900140C
:103ED00013927E325292007C4444447C00010100E3
:103EE000FF494949494949FF000000B89792909419
:103EF000B810007F4848447420FF0A0A4A8A7F00AD
:103F0000003F44444272200484C4A49C8784F48407
:103F1000848484840004040404040404FF0404046A
:103F20000404040404E42526342C242426E5040493
:103F30000400007F252525252525257F000000403C
:103F400042CC00504EC8487FC84848400040201F1F
:103F50002048464140404748484E406106E01884AA
:103F6000E41C8465BE24A4640404FF000100FF4136
:103F700021120C1B61C0400000007E2A2A2A2A2A36
:103F80002A7E0000007F252525257F00007F25252E
:103F900025257F102C24A46425262424A424342C35
:103FA000044048494949497F4949494B48404021D3
:103FB0008670007E4A4A4A4A4A7E000000FE01405E
:103FC0007F41417F41417F41417F4000FC042424E7
:103FD000FCA5A6A4FC24242404601F808042462A59
:103FE00012122A2642C0401010FF9050988888E98B
:103FF0008E8888988842817F0040402625180816C0
:1040000031602030EF28284464DC1054FF54547C85
:1040100010017F215122140F14253F4545454402CC
:104020001CC0304C300F08F808082818085E4320E0
:10403000201008040301060830602000F8484848B2
:1040400048FF48484848F80000000F040404043FB3
:10405000444444444F407000FE0242424242FA420D
:104060004242624202182720202020203F20212E99
:1040700024202000000000000000000000000000DC
:10408000000000000000F8000000000000003330D5
:1040900000000000100C06100C06000000000000DC
:1040A00000000040C07840C0784000043F04043F56
:1040B000040400007088FC08300000001820FF2174
:1040C0001E0000F008F000E018000000211C031E94
:1040D000211E0000F00888700000001E2123241912
:1040E00027211010160E0000000000000000000044
:1040F000000000000000E0180402000000000718A3
:1041000020400000020418E00000000040201807D2
:10411000000000404080F0804040000202010F019A
:10412000020200000000F0000000000101011F0178
:10413000010100000000000000000080B0700000DD
:10414000000000000000000000000000010101016B
:1041500001010100000000000000000030300000FC
:1041600000000000000000806018040060180601D4
:1041700000000000E010080810E000000F102020F0
:10418000100F00001010F8000000000020203F2059
:1041900020000000700808088870000030282422E1
:1041A0002130000030088888483000001820202086
:1041B000110E000000C02010F800000007042424A5
:1041C0003F240000F80888880808000019212020F2
:1041D000110E0000E0108888180000000F11202048
:1041E000110E0000380808C83808000000003F0021
:1041F0000000000070880808887000001C2221213F
:10420000221C0000E010080810E00000003122220B
:10421000110F00000000C0C000000000000030309E
:10422000000000000000800000000000008060002E
:104230000000000000804020100800000102040877
:10424000102000404040404040400004040404046A
:104250000404000008102040800000002010080422
:10426000020100007048080808F000000000303625
:10427000010000C030C828E810E0000718272423F8
:10428000140B000000C038E0000000203C230202B4
:1042900027382008F8888888700000203F202020D8
:1042A000110E00C030080808083800071820202028
:1042B00010080008F808080810E000203F2020201F
:1042C000100F0008F88888E8081000203F202023FD
:1042D00020180008F88888E8081000203F20000314
:1042E000000000C03008080838000007182020220D
:1042F0001E020008F808000008F808203F2101010C
:10430000213F20000808F8080800000020203F2076
:1043100020000000000808F8080800C08080807FA6
:1043200000000008F888C028180800203F20012657
:1043300038200008F8080000000000203F2020205E
:1043400020300008F8F800F8F80800203F003F008F
:104350003F200008F830C00008F808203F20000780
:10436000183F00E01008080810E0000F102020207F
:10437000100F0008F808080808F000203F2101018C
:10438000010000E01008080810E0000F182424388D
:10439000504F0008F8888888887000203F2000036C
:1043A0000C302000708808080838000038202121CF
:1043B000221C00180808F8080818000000203F20F8
:1043C00000000008F808000008F808001F2020205E
:1043D000201F000878880000C83808000007380E41
:1043E000010000F80800F80008F800033C07000787
:1043F0003C0300081868808068180820302C0303EC
:104400002C30200838C800C83808000000203F20A1
:1044100000000010080808C83808002038262120AD
:10442000201800000000FE020202000000007F4091
:10443000404000000C30C0000000000000000106F9
:1044400038C00000020202FE000000004040407F31
:10445000000000000004020202040000000000004E
:1044600000000000000000000000008080808080CC
:1044700080808000020204000000000000000000B4
:1044800000000000008080808000000019242222AB
:10449000223F2008F8008080000000003F1120200B
:1044A000110E000000008080800000000E1120200E
:1044B000201100000000808088F800000E112020EC
:1044C000103F200000808080800000001F222222F8
:1044D000221300008080F0888888180020203F2068
:1044E0002000000000808080808000006B94949405
:1044F00093600008F8008080800000203F210000C9
:10450000203F2000809898000000000020203F20DD
:10451000200000000000809898000000C08080808B
:104520007F000008F8000080808000203F24022DDA
:10453000302000000808F8000000000020203F2084
:104540002000008080808080808000203F20003F0D
:1045500020003F8080008080800000203F210000FC
:10456000203F200000808080800000001F2020204D
:10457000201F00808000808000000080FFA120209C
:10458000110E000000008080808000000E112020AD
:10459000A0FF80808080008080800020203F21203C
:1045A00000010000008080808080000033242424EB
:1045B000241900008080E0808000000000001F209F
:1045C0002000008080000000808000001F2020204C
:1045D000103F20808080000080808000010E300825
:1045E00006010080800080008080800F300C030C6A
:1045F000300F0000808000808080000020312E0E6F
:10460000312000808080000080808080818E701842
:1046100006010000808080808080000021302C22F4
:1046200021300000000000807C0202000000000039
:104630003F404000000000FF00000000000000FFBD
:104640000000000002027C800000000040403F00AB
:10465000000000000000000000808000000000005A
:104660000001010000000000000000000000000048
:10467000000000000000000000000000000000003A
:10468000000000000000000000000000000000002A
:10469000000000000000000000000000000000001A
:1046A0000000000000C0E0F8FCFE7F3F0F0F07078E
:1046B0000787C7C7C7E7EFFFFFFFEFE7E7E7E7E7D2
:1046C000EFFFFFFFEFE7E7E7E7E7F7070F3F7FFFC2
:1046D000FEFCF0C000000000000000000000D8DC7C
:1046E000DFDFDFDFD7010000000000003E7FFFFFBB
:1046F000E3E1E1FFFFFFE0E0E0E0E0E0E0FFFFFFFB
:10470000E0E0E0E0C183070000000001D7DFDFDF69
:10471000DFDCD80000000000000001030F1F3FFF96
:10472000FFFEF8F0E0C0800000F8F0E0C0C0C0FF7D
:10473000FFFFC0C0C0C0C0C0C0FFFFFFC0E0E1F3CA
:10474000FF7F3F00C0E0F8FEFFFFFF3F1F070100B3
:104750000000000000000000000000000001070F42
:104760003F7FFFFEFCF9F3C1810101FFFFFF010163
:104770000101010101FFFFFF030181C0F0FCFEFF09
:10478000FF7F3F0F07030000000000000000000053
:104790000000000000000000000000000000000316
:1047A000070F3F7FFFFFFFFBF3E3C3030303030395
:1047B00083C3F3F3FBFFFFFF7F3F0F030100000004
:1047C00000000000000000000000000000000000E9
:1047D00000000000000000000000000000000000D9
:1047E000000307071F3F7FFFFEFCFCFEFFFF7F3F2C
:1047F0000F070300000000000000000000000000A0
:1048000000000000000000000000000000000000A8
:104810000000000000000000000000000000000098
:104820000000000003070F0F070100000000000058
:104830000000000000000000000000000000000078
:104840000000000000000000555555555555C53F66
:104850007D6FEB0312D6D4BF5544880E55C1C93FB6
:104860003B8F68B52882A4BF88B20175E0EF493F4D
:1048700009F7FD0DE13D023F4B2D8A1C273A03C08D
:10488000C88A599CE52A004059018D1B6C06E6BF79
:1048900082922EB1C5B8B33F4FBB610567ACDD3F17
:1048A000182D4454FB21E93F9BF681D20B73EF3F57
:1048B000182D4454FB21F93FE2652F227F2B7A3CCF
:1048C000075C143326A6813CBDCBF07A8807703C88
:1048D000075C143326A6913CC4EB98999999C9BFFB
:1048E000711623FEC671BCBF6D9A74AFF2B0B3BF30
:1048F0009AFDDE522DDEADBF2F6C6A2C44B4A2BFF0
:104900000D5555555555D53FFF8300922449C23F5B
:104910006E204CC5CD45B73F513DD0A0660DB13F8F
:10492000EB0D76244B7BA93F11DA22E33AAD903FA1
:1049300000000000000000005849000800000020AE
:1049400084030000B63400083C4B000884030020B8
:1049500064040000003600081184A24A04680901BA
:10496000020304060708090C69100516020406086C
:10497000180E8080C0C0C0606060303030381801D0
:104980002A0C01AD0E0E0E06013B0E0E172A1C213D
:104990001929000919706060E0C0C08080080F11FB
:1049A00080C0E07030381C0C060703030101744915
:1049B0003B1F8080F0F8F8F00C180880E0F0F8FC5D
:1049C0003C1C622DFCF8F0E01D980FC0C0C1010333
:1049D0000307060E0C183870606C380EC0F0781E95
:1049E0000733313878FCFEF6C016198A11180CF816
:1049F000FCDE0E0F1EBEFCF006FF0118130307FFBE
:104A0000FFFE801E3FFFFFF9F9FFFF7F1F0E7F159E
:104A10002FC180CECEC6C01F18093F80FCFCFD7D93
:104A200001C07C1270195B19462E01070E3CF87903
:104A300074FEFF03181001030F1F7FFEFCF0F0F05F
:104A40007F7F3E10030E1F1F0F0F03040701120686
:104A50001905180D0F1E3F7F7F7F79733F3F1F0E93
:104A60002D1A0317180E0E0F0F1F3F3D080C1F1FA6
:104A70001F193C1D7009F3F0FCFE3F1F070114CF06
:104A8000FF70A6031F7EF0C03C0303011E1CC0C0C4
:104A900040011808F87840C04058580A51399A41E6
:104AA0001D60F0E02001D630303818104A013E3940
:104AB0002D5DE0F83F0F555809070E1C383060E0B7
:104AC000C03F1138154060607030180C0711083F66
:104AD0007D66E7E3C0C0C0E0607D19EC2A60011C80
:104AE0007F7F610129069DE1E0E0C0A0111A802CC2
:104AF0001B70383C7A036A997E180E030306060C75
:104B00000C1818383030706071290119B61A8104F8
:104B100069BC39C759013920196F080C1130303080
:104B200018181C0C0E06070357011E19F32901194A
:0C4B3000BC9901591501280350803F007A
:0400000508000131BD
:00000001FF
