:020000040800F2
:1000000038070020450100084D0100084F01000895
:1000100051010008530100085501000800000000CC
:100020000000000000000000000000005701000870
:1000300059010008000000005B0100085D01000894
:1000400047100008491000084B1000084D10000828
:100050004F100008511000085310000855100008F8
:1000600057100008591000085B1000085D100008C8
:100070005F10000861100008631000086510000898
:1000800067100008691000086B1000085F01000885
:100090005F0100085F0100085F010008751000089B
:1000A00077100008791000087B1000087D10000808
:1000B0007F100008811000088310000885100008D8
:1000C00087100008891000088B1000088D100008A8
:1000D0008F1000089110000893100008E910000824
:1000E000EB100008ED100008EF100008F1100008F8
:1000F000F3100008F5100008F7100008F9100008C8
:10010000FB100008FD100008FF1000080111000896
:100110000311000805110008071100080911000863
:100120000B1100080D1100080F1100081111000833
:10013000DFF80CD002F04EFA00480047F10F00083B
:10014000380700200648804706480047FEE7FEE7DC
:10015000FEE7FEE7FEE7FEE7FEE7FEE7FEE7FEE777
:1001600047020008310100080CB500200190009002
:100170006C48006840F480306A49086000BF6948F4
:10018000006800F4003000900198401C0190009835
:1001900018B90198B0F5A06FF1D16248006800F479
:1001A000003010B10120009001E000200090009884
:1001B000012843D15C48006840F010005A490860AB
:1001C0000846006820F0030008600846006840F018
:1001D0000200086053484068524948600846406839
:1001E00048600846406840F48060486008464068BF
:1001F00020F47C1048600846406840F4E8104860ED
:100200000846006840F08070086000BF45480068FC
:1002100000F000700028F9D04248406820F0030048
:10022000404948600846406840F00200486000BF0E
:100230003C48406800F00C000828F9D10CBD10B50E
:10024000FFF792FF10BD10B53648006840F001007E
:1002500034490860084640683449084031494860DC
:1002600008460068324908402E4908600846006880
:1002700020F4802008600846406820F4FE004860B2
:100280004FF41F008860FFF7DAFF4FF00060294944
:10029000086010BD10B5002100200022214B5B68D2
:1002A00003F00C0121B1042906D0082928D107E068
:1002B000214B224C236027E01F4B204C236023E07E
:1002C000184B5B6803F47010164B5B6803F48032C4
:1002D000022303EB904022B9194B4343174C236090
:1002E0000DE0104B5B6803F4003323B1144B434320
:1002F000124C236003E0104B4343104C236003E097
:100300000D4B0E4C236000BF00BF064B5B68C3F370
:1003100003130C4CE15C094B1B68CB40074C23607A
:1003200010BD000000100240002002400000FFF855
:10033000FFFFF6FE08ED00E000127A00000000204A
:1003400000093D000400002031490143314A116099
:10035000704770B5002100230F22C47804B32D4CE0
:10036000246804F4E064C4F5E064210AC1F10403E4
:10037000CA40447804FA03F1847814402143090107
:10038000254C0678A155047804F01F050124AC40E3
:1003900005786D11AD0005F1E025C5F8004109E0D3
:1003A000047804F01F050124AC401C4D067876113A
:1003B00045F8264070BD1A4A0A400243154B1B1FE0
:1003C0001A60704739B1134A121D12680243114B6B
:1003D0001B1D1A6006E00F4A121D126882430D4B66
:1003E0001B1D1A607047042808D14FF0E0210969ED
:1003F00041F004014FF0E022116107E04FF0E021ED
:10040000096921F004014FF0E022116170470000FA
:100410000000FA050CED00E000E400E080E100E0FF
:1004200080FFFF1F10B50446CC48844208D101214B
:10043000042000F02DFB0021042000F029FB46E001
:10044000C748844208D10121082000F021FB002187
:10045000082000F01DFB3AE0C248844208D1012187
:10046000102000F015FB0021102000F011FB2EE001
:10047000BD48844208D10121202000F009FB002161
:10048000202000F005FB22E0B848844208D1012179
:10049000402000F0FDFA0021402000F0F9FA16E0BB
:1004A000B348844208D10121802000F0F1FA0021F4
:1004B000802000F0EDFA0AE0AE48844207D1012125
:1004C000801500F0E5FA0021A01500F0E1FA10BD5A
:1004D00010B50121084600F0DBFA0021012000F0F0
:1004E000D7FA10BD2DE9F041024600250026002074
:1004F00000230024002791F803C00CF00F0591F8A9
:1005000003C00CF0100CBCF1000F03D091F802C036
:100510004CEA050591F800C0BCF1000F31D0146819
:1005200000202BE04FF0010C0CFA00F3B1F800C0F2
:100530000CEA03069E4220D183004FF00F0C0CFA08
:1005400003F7BC4305FA03FC4CEA040491F803C02A
:10055000BCF1280F06D14FF0010C0CFA00FCC2F8D8
:1005600014C00AE091F803C0BCF1480F05D14FF068
:10057000010C0CFA00FCC2F810C0401C0828D1D3B2
:100580001460B1F800C0BCF1FF0F34DD54680020E6
:100590002EE000F1080C4FF0010808FA0CF3B1F856
:1005A00000C00CEA03069E4221D183004FF00F0CDD
:1005B0000CFA03F7BC4305FA03FC4CEA040491F877
:1005C00003C0BCF1280F05D100F1080C08FA0CF8A3
:1005D000C2F8148091F803C0BCF1480F07D100F1B4
:1005E000080C4FF0010808FA0CF8C2F81080401C03
:1005F0000828CED35460BDE8F0814FF6FF7101802A
:10060000022181700421C170704702460020936866
:100610000B400BB1012000E00020704701468868C4
:1006200080B2704702460020D3680B400BB1012016
:1006300000E0002070470146C86880B27047016141
:100640007047416170470AB1016100E04161704744
:10065000C16070474FF480320A43826181618261D8
:1006600082698269704702460020434B18684FF642
:100670008073184040EA021008433F4B18607047EF
:100680003E49C8617047F0B50A46002300240021A6
:10069000002500F00046B6F1004F02D1364EF16958
:1006A00001E0354E7168C0F3034583B200F4401693
:1006B000B6F5401F08D121F070612F4E766826F004
:1006C00070662D4F7E6012E000F48016B6F5801F34
:1006D00006D1032606FA05F4A14341F0706106E055
:1006E000460D360103FA06F6B14341F0706122B1BE
:1006F000460D360103FA06F6314300F00046B6F126
:10070000004F02D11C4EF16101E01B4E7160F0BD43
:1007100030B500228B071C0F0F2303FA04F2164B8F
:1007200008338C1053F824309343134C08348D1045
:1007300044F8253023468C1053F824308C07240FBE
:1007400000FA04F423430C4C08348D1044F825308F
:1007500030BD0A49DC3108607047000000080140E4
:10076000000C01400010014000140140001801403D
:10077000001C014000200140000001400000204218
:10078000DF48006840F00100DD4908600846406825
:10079000DC490840DA49486008460068DA49084000
:1007A000D74908600846006820F4802008600846A1
:1007B000406820F4FE0048604FF41F0088607047D6
:1007C000CF49096821F48031CD4A1160114609688A
:1007D00021F480211160B0F5803F03D0B0F5802F67
:1007E0000ED106E0C649096841F48031C44A11605F
:1007F00007E0C349096841F4A021C14A116000E043
:1008000000BF00BF704710B5014600220023002042
:100810004A11012A02D1BA4C236806E0022A02D109
:10082000B74C236A01E0B64C636A01F01F02012451
:1008300094401C400CB1012000E0002010BD38B5F0
:10084000002000900024002500BF3120FFF7DBFFCF
:1008500005460098401C00900098B0F5A06F01D0AC
:10086000002DF2D03120FFF7CEFF08B1012400E0C7
:100870000024204638BD01460020A14A106820F01F
:10088000F80040EAC10010607047A0490860704756
:10089000024600209A4B586820F47C1042EA01037B
:1008A0001843974B5860704798490866704701464F
:1008B0000020934A506820F00300084350607047BE
:1008C0008F48406800F00C007047014600208C4AB9
:1008D000506820F0F0000843506070470146002047
:1008E000874A506820F4E060084350607047014632
:1008F0000020834A506820F4605040EAC1005060F4
:10090000704729B17E4A527A02437D4B5A7204E005
:100910007B4A527A82437A4B5A7270477B49D8316C
:100920000860704701460020754A506820F4404036
:100930000843506070470021714A20321170704A9C
:1009400082F82010012802D004280AD104E00121F5
:100950006B4A2032117005E00521694A203211707E
:1009600000E000BF00BF70476949086070476449F4
:10097000096A0143624A1162704765494439086057
:10098000704730B500210022002400235C4D6D68C3
:1009900005F00C0121B1042905D0082923D105E077
:1009A0005C4D056022E05B4D05601FE0544D6D68B5
:1009B00005F47012524D6D6805F48034022505EB84
:1009C00092421CB9544D554305600BE04C4D6D6887
:1009D00005F400351DB1504D5543056002E04D4D05
:1009E0005543056002E04B4D056000BF00BF444D1C
:1009F0006D6805F0F0010909484D6B5C0568DD4044
:100A000045603F4D6D6805F4E061090A434D6B5C3C
:100A10004568DD4085603A4D6D6805F46051C90A4E
:100A20003E4D6B5C4568DD40C560354D6D6805F435
:100A30004041890B3A4D6B5CC568B5FBF3F5056128
:100A400030BD29B12E4A526902432D4B5A6104E050
:100A50002B4A526982432A4B5A61704729B1284A6E
:100A600092690243264B9A6104E0254A92698243C7
:100A7000234B9A61704729B1214AD2690243204B26
:100A8000DA6104E01E4AD26982431D4BDA61704785
:100A900029B11B4AD2680243194BDA6004E0184AB4
:100AA000D2688243164BDA60704729B1144A126942
:100AB0000243134B1A6104E0114A12698243104B3E
:100AC0001A61704712494039086070470F49C8647D
:100AD00070470B49C87170470948406A40F0807000
:100AE00007494862704701460020054A92680A405B
:100AF0000AB1012000E00020704701498872704768
:100B0000001002400000FFF8FFFFF6FE0000424226
:100B10008004424200127A0000093D0014000020C7
:100B20002400002010B50446FB48844209D101216D
:100B30008803FFF7ADFF00214FF48040FFF7A8FFC7
:100B400032E0F648844209D101214804FFF7ADFFA5
:100B500000214FF40030FFF7A8FF25E0F048844261
:100B600009D101218804FFF7A0FF00214FF4802064
:100B7000FFF79BFF18E0EB48844209D10121C8042C
:100B8000FFF793FF00214FF40020FFF78EFF0BE0EB
:100B9000E548844208D101210805FFF786FF0021BE
:100BA0004FF48010FFF781FF10BD2DE9F04786B0AC
:100BB00005460E460024A24600BFA1460027B08984
:100BC00000B100BF2F462C8A4CF6FF700440F0881D
:100BD00004432C82AC894EF6F3100440B08831896E
:100BE0000843718908430443AC81AC8A4FF6FF4047
:100BF0000440B0890443AC8201A8FFF7C2FEC64896
:100C0000874202D1DDF810A001E0DDF80CA0A88930
:100C100000F4004040B10AEBCA0000EB0A10316852
:100C20004900B0FBF1F807E00AEBCA0000EB0A103C
:100C300031688900B0FBF1F86420B8FBF0F00401E2
:100C40002009642101FB1089A88900F4004040B10B
:100C5000322000EBC900B0FBF1F000F007000443C4
:100C600008E0322000EB09106421B0FBF1F000F045
:100C70000F0004432C8106B0BDE8F0874FF41651F5
:100C8000016000218180C18001810C21418100210E
:100C90008181704710B502460020108A4FF2FF0391
:100CA00018400B884C8823438C882343CC882343EB
:100CB0001843108210BD0021018041808180C180D5
:100CC000704721B1828942F40052828104E0828916
:100CD0004DF6FF731A4082817047F0B50346002439
:100CE00000260025002040F66A17B94200D100BF57
:100CF0001846C1F3421401F01F06012707FA06F552
:100D0000012C01D10C3004E0022C01D1103000E0A4
:100D100014301AB107682F43076002E00768AF4339
:100D20000760F0BD1AB1838A0B43838202E0838A95
:100D30008B4383827047028A4FF6F0731A40028217
:100D4000028A0A430282704782894FF2FF731A4077
:100D5000828182890A438281704721B1828942F06F
:100D60000202828104E082894FF6FD731A4082817B
:100D70007047028A4FF6DF731A400282028A0A43E2
:100D80000282704721B1028A42F48042028204E06A
:100D9000028A4BF6FF731A4002827047C1F30802C1
:100DA0008280704701468888C0F3080070478189B7
:100DB00041F0010181817047028BD2B20283028B24
:100DC00042EA012202837047028B02F47F420283CF
:100DD000028B0A430283704721B1828A42F02002CB
:100DE000828204E0828A4FF6DF731A408282704763
:100DF00021B1828A42F01002828204E0828A4FF698
:100E0000EF731A408282704721B1828A42F0080251
:100E1000828204E0828A4FF6F7731A40828270471A
:100E200021B1828942F40042828103E08289C2F3C7
:100E30000E028281704721B1828A42F4006282826E
:100E400004E0828A4FF2FF731A4082827047828ADE
:100E50004FF6FB731A408282828A0A43828270476D
:100E600021B1828A42F00202828204E0828A4FF635
:100E7000FD731A408282704702460020B1F5007F60
:100E800000D100BF13880B400BB1012000E000200F
:100E9000704701F40072B2F5007F00D100BFCA4371
:100EA0000280704770B50246002400230025002010
:100EB00040F66A16B14200D100BFC1F3421501F0FD
:100EC0001F03012606FA03F3012D02D19689334050
:100ED00006E0022D02D1168A334001E0968A3340A3
:100EE0000C12012606FA04F41688344013B10CB132
:100EF000012000E0002070BD10B50022002340F664
:100F00006A14A14200D100BF0A1201249440A3B286
:100F1000DC43048010BD0000003801400044004064
:100F200000480040004C00400050004000B589B02F
:100F300001212120FFF792FD18208DF823002020A9
:100F4000ADF8200003208DF8220008A93348FFF7F0
:100F5000C9FA04208DF823004020ADF8200008A92C
:100F60002E48FFF7BFFA01210820FFF78CFB012173
:100F70004804FFF780FD4FF4165004900020ADF8B0
:100F80001400ADF81600ADF81800ADF81C000C20E8
:100F9000ADF81A0004A92248FFF707FE0020ADF8BB
:100FA0000400ADF806004FF40070ADF80800002012
:100FB000ADF80A0001A91A48FFF76CFE012240F2C1
:100FC00025511748FFF789FE01211548FFF779FEE3
:100FD00026208DF80C0000208DF80D008DF80E00F5
:100FE00001208DF80F0003A8FFF7B3F909B000BD89
:100FF000FFF79CFF00F065FA482000F093F80BE043
:10100000084800210268084601F035F8064800212A
:101010000268202001F02FF8F2E7000000140140E0
:1010200000440040280000202C000020704700BF32
:10103000FEE700BFFEE700BFFEE700BFFEE7704728
:1010400070477047704770477047704770477047E8
:1010500070477047704770477047704770477047D8
:1010600070477047704770477047704770477047C8
:1010700070477047704770477047704770477047B8
:1010800070477047704770477047704770477047A8
:10109000704710B540F225511E48FFF703FF10B30B
:1010A00040F225511B48FFF727FF1A48001D04880E
:1010B00034B91948006818B901201749086012E0CE
:1010C00015480068012805D114480460022012491F
:1010D000086008E010480068022804D11048046045
:1010E00000200D49086010BD704770477047704779
:1010F0007047704770477047704770477047704738
:101100007047704770477047704770477047704727
:1011100070470000004400403000002028000020FC
:101120002C0000204FF0E021096921F004014FF06C
:10113000E0221161C21700EB5272C2F3C702294BC1
:101140001A701946097801EB4102C2EBC1114FF642
:10115000FF7202EAC101244A118070470146224A07
:1011600012884A434FF0E0235A6100229A6101221B
:101170001A6100BF4FF0E022106900F001021AB1BD
:1011800000F48032002AF5D000224FF0E0231A61EB
:101190009A6170470146134A12784A434FF0E023A0
:1011A0005A6100229A6101221A6100BF4FF0E022C9
:1011B000106900F001021AB100F48032002AF5D063
:1011C00000224FF0E0231A619A617047002106E087
:1011D000002200E0521CB2F5FA7FFBD3491C814289
:1011E000F6D37047340000203600002070B5044666
:1011F00008256901F648FFF722FA00BF0221F548E9
:10120000FFF71FFA00BF16E004F0800020B10121B3
:10121000F048FFF714FA03E00121EE48FFF711FA56
:101220000221EC48FFF70BFA00BF0221E948FFF763
:1012300008FA6006040E2800A5F10101CDB2E3D141
:1012400070BD70B5044608256901E148FFF7F9F95A
:101250000221E048FFF7F5F900BF16E004F0800036
:1012600020B10121DB48FFF7EAF903E00121D94869
:10127000FFF7E7F90221D748FFF7E1F900BF0221A4
:10128000D448FFF7DEF96006040E2800A5F101013D
:10129000CDB2E3D170BD70B504460D4605F1B00185
:1012A000C8B2FFF7CEFF102141EA1410FFF7C9FFC3
:1012B00004F00F00FFF7C5FF70BD70B506460024AF
:1012C00015E004F1B001C8B2FFF7BBFF0120FFF742
:1012D000B8FF1020FFF7B5FF002504E03046FFF708
:1012E00085FF681CC5B2802DF8DB601CC4B2082CD9
:1012F000E7DB70BD70B5002415E004F1B001C8B2A1
:10130000FFF79FFF0120FFF79CFF1020FFF799FFD9
:10131000002504E00020FFF769FF681CC5B2802D9E
:10132000F8DB601CC4B2082CE7DB70BD07E040F2BC
:10133000375100BF0A00A1F10101FBD1401E002876
:10134000F5D1704710B504462046FFF77AFF10BD6F
:1013500070B504462546E11704EB11710911A4EBA1
:101360000111C8B2FFF76DFF2546E11704EB1171BB
:1013700009111031C8B2FFF764FF70BD10B5044603
:101380002020FFF75EFF2046FFF75BFF10BD70B522
:1013900005460C462120FFF754FF2846FFF751FF72
:1013A0002046FFF74EFF70BD70B505460C46222063
:1013B000FFF747FF2846FFF744FF2046FFF741FFAE
:1013C00070BD10B5044644F04000FFF73AFF10BD71
:1013D00010B504468120FFF734FF2046FFF731FFA8
:1013E00010BD10B504468D20FFF72BFF44F0100010
:1013F000FFF727FF10BD10B5044644F0A000FFF72B
:1014000020FF10BD10B5044644F0A400FFF719FFFB
:1014100010BD10B5044644F0A600FFF712FF10BD42
:1014200010B50446A820FFF70CFF2046FFF709FF80
:1014300010BD10B5044644F0AE00FFF702FF10BD2A
:1014400010B5044644F0B000FFF7FBFE10BD10B528
:10145000044644F0C000FFF7F4FE10BD10B504468A
:10146000D320FFF7EEFE2046FFF7EBFE10BD10B5D0
:101470000446D520FFF7E5FE2046FFF7E2FE10BD4B
:1014800010B50446D920FFF7DCFE2046FFF7D9FE51
:1014900010BD10B50446DA20FFF7D3FE44F0020079
:1014A000FFF7CFFE10BD10B50446DB20FFF7C9FEE5
:1014B0002046FFF7C6FE10BD10B5E320FFF7C1FEC2
:1014C00010BD08B501210820FFF7C8FA012140200E
:1014D000FFF7C4FA0320ADF800008DF802001020D9
:1014E0008DF8030069463B48FEF7FCFF4FF440705F
:1014F000ADF8000003208DF8020010208DF80300E5
:1015000069463348FEF7EEFF02213248FFF797F8AD
:101510004FF400712E48FFF794F83220FFF706FFD2
:101520004FF400712A48FFF78AF8AE20FFF789FED2
:10153000D520FFF786FE8020FFF783FEA820FFF767
:1015400080FE3F20FFF77DFED320FFF77AFE0020CC
:10155000FFF777FE4020FFF774FE8D20FFF771FE46
:101560001420FFF76EFE2020FFF76BFE0220FFF72E
:1015700068FEA120FFF765FEC820FFF762FEDA20B3
:10158000FFF75FFE1220FFF75CFE8120FFF759FE98
:10159000CF20FFF756FED920FFF753FEF120FFF7CB
:1015A00050FEDB20FFF74DFE4020FFF74AFEA4204F
:1015B000FFF747FEA620FFF744FEAF20FFF741FEEE
:1015C0000020FFF77AFE00210846FFF764FE08BD01
:1015D000000C01400018014070B505460C4621463C
:1015E0002846FFF758FE2046E11704EB5171C91059
:1015F000A4EBC10201219140CEB2B02101EBE40184
:10160000C8B2FFF71EFE102141EA1510FFF719FEC0
:1016100005F00F00FFF715FE3046FFF7E7FD70BD40
:101620002DE9F04105460E464FF4047095FBF0F0AD
:1016300005B24FF4047096FBF0F006B201276CE09F
:1016400007F1B001C8B2FFF7FCFD0120FFF7F9FD7B
:101650001020FFF7F6FDDDB9002404E00020FFF7BD
:10166000C5FD601CC4B23E2CF8DB3E2404E0FF2024
:10167000FFF7BCFD601CC4B2402CF8DB402404E042
:101680000020FFF7B3FD601CC4B27F2CF8DB42E002
:10169000002D16DD002404E00020FFF7A7FD601CEC
:1016A000C4B2C5F13E00A042F6DCC5F13E00C4B2B2
:1016B00004E0FF20FFF79AFD601CC4B23E2CF8DB6B
:1016C00029E0002D27DA002404E00020FFF78EFD3A
:1016D000601CC4B23E2CF8DB3E2404E0FF20FFF780
:1016E00085FD601CC4B2402CF8DB402404E0FF20E0
:1016F000FFF77CFD601CC4B2C5F14000A042F6DCDF
:10170000C5F14000C4B204E00020FFF76FFD601C8B
:10171000C4B27F2CF8DB781CC7B2032F90DB0527FF
:101720006CE007F1B001C8B2FFF78BFD0120FFF7B5
:1017300088FD1020FFF785FDDEB9002404E00020BD
:10174000FFF754FD601CC4B23E2CF8DB3E2404E0DD
:10175000FF20FFF74BFD601CC4B2402CF8DB402497
:1017600004E00020FFF742FD601CC4B27F2CF8DBD0
:1017700042E0002E16DD002404E00020FFF736FDD5
:10178000601CC4B2C6F13E00A042F6DCC6F13E00C9
:10179000C4B204E0FF20FFF729FD601CC4B23E2C58
:1017A000F8DB29E0002E27DA002404E00020FFF710
:1017B0001DFD601CC4B23E2CF8DB3E2404E0FF207B
:1017C000FFF714FD601CC4B2402CF8DB402404E099
:1017D000FF20FFF70BFD601CC4B2C6F14000A04221
:1017E000F6DCC6F14000C4B204E00020FFF7FEFCC6
:1017F000601CC4B27F2CF8DB781CC7B2072F90DBCB
:10180000BDE8F0812DE9F0470446884615464FF0C3
:1018100000090026002741462046FFF73CFD1CE05A
:10182000E85D203800F0FF097E2C04DD002408F17B
:10183000010000F0FF08002609E009EB4901FE4A1B
:1018400002EB4101885DFFF7D1FC701CC6B2062E89
:10185000F3DBA01DC4B2781CC7B2E85D0028DFD15D
:10186000BDE8F0872DE9F04706460F469046002573
:101870000024A14631E018F809002038C5B2782EBE
:1018800002DD0026781CC7B239463046FFF703FD5B
:10189000002407E004EB0511E84A505CFFF7A6FCC2
:1018A000601CC4B2082CF5DB781CC1B23046FFF7CF
:1018B000F2FC002408E004EB05110831DF4A505C1B
:1018C000FFF794FC601CC4B2082CF4DB06F108009E
:1018D000C6B209F1010000F0FF0918F8090000285C
:1018E000C9D1BDE8F0872DE9F04781460F46904603
:1018F0000024002601256BE00024012513E0D048D8
:10190000005D18F8061088420BD1CD49601C095CB7
:10191000701C18F80000814203D1C4EBC4004500DC
:1019200005E0A01CC4B2C648005D7F28E7DC00BF0C
:10193000B9F1760F03DD4FF00009781CC7B23946C4
:101940004846FFF7A8FC012D1FD039464846FFF74F
:10195000A2FC002406E0BB49485DFFF747FC6D1C74
:10196000601CC4B20E2CF6DB781CC1B24846FFF7EF
:1019700092FC002406E0B349485DFFF737FC6D1C7C
:10198000601CC4B20E2CF6DB1CE0701CC6B23946DB
:101990004846FFF780FC002404E00020FFF726FC07
:1019A000601CC4B2102CF8DB781CC1B24846FFF7AB
:1019B00072FC002404E00020FFF718FC601CC4B295
:1019C000102CF8DB09F10E0000F0FF09B01CC6B2C4
:1019D00018F8060000288FD1BDE8F087F8B5064654
:1019E0000F461546002427E0285D7F2814DD285D7A
:1019F0008DF80000601C285C8DF8010000208DF837
:101A000002006A4639463046FFF76DFF06F10E00C8
:101A1000C6B2A01CC4B20FE0285D8DF80000002003
:101A20008DF801006A4639463046FFF71BFF06F184
:101A30000800C6B2601CC4B2285D0028D4D1F8BD2D
:101A4000F8B504460E461546E006040E8DF8005023
:101A500000208DF801006A4631462046FFF7D2FE8D
:101A6000F8BDF8B506460F4615460024F006060EEA
:101A700027E0285D7F2814DD285D8DF80000601CBC
:101A8000285C8DF8010000208DF802006A46394676
:101A90003046FFF728FF06F10E00C6B2A01CC4B204
:101AA0000FE0285D8DF8000000208DF801006A46E7
:101AB00039463046FFF7D6FE06F10800C6B2601C74
:101AC000C4B2285D0028D4D1F8BD2DE9FC410646FA
:101AD000884614461F460025002000900190F0061D
:101AE000060E42F21070B4FBF0F00A21B0FBF1F2E6
:101AF00001FB12008DF800004FF47A70B4FBF0F097
:101B0000B0FBF1F201FB12008DF801006420B4FB80
:101B1000F0F0B0FBF1F201FB12008DF802000A2098
:101B2000B4FBF0F0B0FBF1F201FB12008DF8030002
:101B30000A20B4FBF0F100FB11408DF8040000BF57
:101B400007E01DF805003030C0B20DF80500681C34
:101B5000C5B2052DF5DBC7F10500694642184146BF
:101B60003046FFF77FFEBDE8FC812DE9FF5F86B0C0
:101B700014461D464FF0010A002003900490059082
:101B80004FF00109002600BF83460022134620467D
:101B9000294600F07FFC09D285F00040CDE90040E5
:101BA0002046019900F03DFC064604E02046294607
:101BB00000F037FC0646304600F015FC22462B4666
:101BC000CDE9000100F09AFB0746884600221E4B33
:101BD0003846414600F095FBCDE9000100F040FC9D
:101BE000834607E009EB89004FEA40090AF101004A
:101BF00000F0FF0A0A2096FBF0F090FBF9F00028B5
:101C0000F0D142F2107096FBF0F00A2190FBF1F255
:101C100001FB1200C0B28DF80C004FF47A7096FBF5
:101C2000F0F090FBF1F201FB1200C0B28DF80D0054
:101C3000642096FBF0F009E06C260008572A0008A3
:101C400094280008B32800080088C34090FBF1F2F4
:101C500001FB1200C0B28DF80E000A2096FBF0F0D6
:101C600090FBF1F201FB1200C0B28DF80F000A20C8
:101C700096FBF0F100FB1160C0B28DF810002E2031
:101C80008DF811004FF47A70BBFBF0F00A21B0FB25
:101C9000F1F201FB12008DF812006420BBFBF0F0A2
:101CA000B0FBF1F201FB12008DF813000A20BBFB20
:101CB000F0F0B0FBF1F201FB12008DF814000A20E5
:101CC000BBFBF0F100FB11B08DF81500002114985A
:101CD000801D03AA1154894608E003A810F80900E2
:101CE000303003A901F8090009F10109B9F10A0F1F
:101CF000F3DB002213462046294600F0CBFB08D236
:101D00000AF1010000F0FF0A2D20CAF1050103AA23
:101D100050542E208DF8110000211498801D03AA24
:101D20001154CAF1050003A94218DDE90601FFF7C5
:101D300069FD0AB0BDE8F09F2DE9FF5F88B08146DC
:101D400017469846DDE916BA012007900020049056
:101D5000059006900124002500BF00264FEAC960C7
:101D60004FEA10693846414600F05BFB05462846BD
:101D700000F04AFB3A464346CDE9000100F0BEFAC6
:101D8000CDE902010022FE4BDDE9020100F0B9FAC3
:101D9000CDE9000100F064FB064606E004EB840098
:101DA00044000798401CC0B207900A20B5FBF0F031
:101DB000B0FBF4F00028F1D142F21070B5FBF0F066
:101DC0000A21B0FBF1F201FB12008DF810004FF474
:101DD0007A70B5FBF0F0B0FBF1F201FB12008DF868
:101DE00011006420B5FBF0F0B0FBF1F201FB120032
:101DF0008DF812000A20B5FBF0F0B0FBF1F201FB08
:101E000012008DF813002E208DF815004FF47A7013
:101E1000B6FBF0F0B0FBF1F201FB12008DF81600FA
:101E20006420B6FBF0F0B0FBF1F201FB12008DF87C
:101E300017000A20B6FBF0F0B0FBF1F201FB120034
:101E40008DF818000A20B6FBF0F100FB11608DF848
:101E5000190000210AF1060004AA1154002405E02B
:101E600004A8005D303004A90855641C0A2CF7DB77
:101E70002E208DF8150000210AF1060004AA115445
:101E8000CBF1050004A9421848460999FFF7EAFC7E
:101E90000CB0BDE8F09F2DE9F05F06460F46904676
:101EA0001C46DDF828A04FF0000BE11704EB517140
:101EB000C910A4EBC10131B92046E11704EB5171FF
:101EC000C1F3C70506E02046E11704EB5171C910C4
:101ED000491CCDB23D4614E029463046FFF7DBF9F8
:101EE000B1460AE059460BF1010B1AF80100FFF761
:101EF0007DF909F1010000F0FF09C145F2DB681C22
:101F0000C5B2A542E8DDBDE8F09F70B5002600240B
:101F100011E021461020FFF7BEF9102507E03146F9
:101F2000761C984A505CFFF761F9681CC5B2702DA9
:101F3000F5DB601CC4B2082CEBDB70BD70B500266D
:101F4000002411E021461C20FFF7A5F91C2507E01D
:101F50003146761C8C4A505CFFF748F9681CC5B2C4
:101F6000582DF5DB601CC4B2082CEBDB70BDF8B556
:101F700006460F4614460020009002250DE00A2078
:101F800094FBF0F100FB11403030C0B20DF80500B9
:101F90000A2094FBF0F0C4B26D1E002DEFDA6A4601
:101FA00039463046FFF75EFCF8BDF8B506460F46E9
:101FB00014460020009002250DE00A2094FBF0F169
:101FC00000FB11403030C0B20DF805000A2094FB30
:101FD000F0F0C4B26D1E002DEFDA6A463946304685
:101FE000FFF710FCF8BD2DE9F04106460F461546F7
:101FF000002439463046FFF74EF900BF0AE005F1EC
:10200000100101EB4101614A02EB4101085DFFF75C
:10201000EDF8641C062CF2DBBDE8F0812DE9F047F9
:1020200005460E4614460A2094FBF0F100FB1140D1
:10203000C7B20A2094FBF0F00A2190FBF1F201FBF9
:10204000120000F0FF08642094FBF0F000F0FF099C
:10205000A91CC8B23A463146FFF7C5FF691CC8B291
:1020600042463146FFF7BFFF4A4631462846FFF752
:10207000BAFFBDE8F0872DE9F05F05468B461646AE
:102080003446002C00DA64424FF47A7094FBF0F08E
:10209000C7B24FF47A7094FBF0F100FB1140642159
:1020A00090FBF1F000F0FF08642094FBF0F100FBDE
:1020B00011400A2190FBF1F000F0FF090A2094FB87
:1020C000F0F100FB114000F0FF0AA91DC8B23A462A
:1020D0005946FFF788FF05F10C01C8B24246594640
:1020E000FFF781FF05F11201C8B24A465946FFF7D2
:1020F0007AFF05F11801C8B252465946FFF773FF3F
:10210000BDE8F09F2DE9F05F05460E46144642F209
:102110001070B4FBF0F0C7B242F21070B4FBF0F1F3
:1021200000FB11404FF47A71B0FBF1F000F0FF08B2
:102130000846B4FBF0F100FB11406421B0FBF1F064
:1021400000F0FF096420B4FBF0F100FB11400A210C
:10215000B0FBF1FA0A20B4FBF0F100FB114B3A4658
:1021600031462846FFF73FFFA91DC8B24246314617
:10217000FFF739FF05F10C01C8B24A46314607E0C6
:102180000088C34038000020473000086C26000853
:10219000FFF729FF05F11201C8B252463146FFF799
:1021A00022FF05F11801C8B25A463146FFF71BFF5E
:1021B000BDE8F09F2DE9FE4F804681EA0300C00F85
:1021C0000C46009021F0004123F00045B8EB0200DE
:1021D000A94105D24046214690461C460B46024680
:1021E00023F00040104347D0270DC7F30A00C3F384
:1021F0000A510290401A019040286BDAC3F3130091
:1022000040F4801B0098924620B10023D2EB030AD1
:1022100063EB0B0B01985946C0F14002504600F0A9
:102220004DF906460D4650465946019A00F065F9AB
:1022300010EB08006141002487EA115284EAE77339
:102240001A4340D0009A62B3019A012A4FEA07521A
:1022500015DC001B61EB02014FF0004202EA07525D
:10226000CDE90042001C41F5801132462B4600F0BA
:1022700063F903B0BDE8F08F40462146F9E7001B43
:1022800061EB0201001C41F5801300185B4120182E
:10229000A2F5001747EB030140EAD570B6196D416E
:1022A00011E06D084FEA360645EAC0754FEA07525D
:1022B000001B61EB0201001C41F5801149084FEA47
:1022C00030000019514132462B4603B0BDE8F04FB3
:1022D00000F025B90098012240000023D0EB020253
:1022E00063EBE073009821464FEAE074B8EB00001E
:1022F00061EB0401E9E783F000435BE781F0004113
:1023000058E72DE9FE4F81EA030404F0004421F070
:10231000004100944FF0000B23F0004350EA010409
:102320005ED052EA03045BD0C3F30A54C1F30A55EA
:102330002C44A4F2F3340194A0FB0254C1F3130122
:1023400041F48011C3F3130343F4801301FB0244EF
:1023500000FB034E840A970A44EA815447EA8357F4
:10236000A4FB076802958D0A05FB07854FEA932CAD
:1023700004FB0C542705029D4FEA065847EA16371E
:10238000B5EB08056EEB070C870E920E47EA811736
:1023900042EA8312A7FB0201B6EB0B0164EB0004D7
:1023A0002B0D43EA0C335E1844EB1C50DA465146C1
:1023B000E7FB0201C5F313044FEA0B3343EA14535E
:1023C0004FEA0432019C43EA0603A4F10C04029490
:1023D000009CCDE900B400F0AFF803B0BDE8F08F89
:1023E00000200146F9E70EB5C10F80EAE07008440D
:1023F000CA07002140F233438DE80E000A460B461F
:1024000000F09AF803B000BD0EB540F233410291DE
:102410000021CDE900110A460B4600F08DF803B00B
:1024200000BD70B5C1F30A5201F000450024C1F3AC
:10243000130140F2FF3341F480119A4201DA002087
:1024400070BD40F233439A42A2F2334203DC52425F
:1024500000F043F800E090402C43F1D0404270BDC2
:10246000C1F30A5210B5C1F3130140F2FF3341F436
:1024700080119A4201DA002010BD40F233439A42A3
:10248000A2F2334203DC524200F027F810BD904024
:1024900010BD000030B5002904DB4FF0004440427D
:1024A00064EB0101002B04DB4FF00044524264EB6B
:1024B00003038B4208BF824230BD0000202A04DBA8
:1024C000203A00FA02F1002070479140C2F1200347
:1024D00020FA03F3194390407047202A04DB203A86
:1024E00021FA02F00021704721FA02F3D040C2F134
:1024F00020029140084319467047202A06DBCB177B
:10250000203A41FA02F043EAE07306E041FA02F3AE
:10251000D040C2F12002914008431946704710B5DF
:10252000002B08DA401C41F1000192185B411A436C
:1025300001D120F0010010BD2DE9F04D92469B46DF
:1025400011B1B1FA81F202E0B0FA80F22032904685
:10255000FFF7B4FF04460F4640EA0A0041EA0B01C8
:1025600053465A46084313D0114653EA010019D086
:10257000C8F140025046FFF7B0FF05460E465046F0
:1025800059464246FFF79AFF084305D0012004E070
:1025900020463946BDE8F08D0020054346EAE07646
:1025A0002C4337430A986305E40AA0EB0800002295
:1025B000FD0A44EA47540A3002D500200146E9E703
:1025C000010510196941DDE9084500196941BDE8B7
:1025D000F04DA4E7064C074D06E0E06840F001032B
:1025E00094E8070098471034AC42F6D3FDF7A4FDF9
:1025F000283200084832000870B58C1810F8015BCA
:1026000015F0070301D110F8013B2A1106D110F88B
:10261000012B03E010F8016B01F8016B5B1EF9D18F
:102620002B0705D40023521E0DD401F8013BFAE715
:1026300010F8013BCB1A921C03E013F8015B01F880
:10264000015B521EF9D5A142D8D3002070BD02E033
:1026500008C8121F08C1002AFAD17047704700202D
:1026600001E001C1121F002AFBD1704700000000E9
:1026700000000000002F0000000007000700001409
:102680007F147F1400242A7F2A1200626408132317
:1026900000364955225000000503000000001C22AE
:1026A0004100000041221C000014083E08140008EC
:1026B000083E0808000000A0600008080808080894
:1026C000000060600000002010080402003E514934
:1026D000453E0000427F40000042615149460021D2
:1026E00041454B31001814127F10002745454539EC
:1026F000003C4A4949300001710905030036494947
:10270000493600064949291E0000363600000000FF
:1027100056360000081C2A49080800141414141422
:102720000808492A1C0800020151090600324959CB
:10273000513E007C1211127C007F49494936003E0F
:1027400041414122007F4141221C007F49494941CA
:10275000007F09090901003E4149497A007F0808C4
:10276000087F0000417F4100002040413F01007F81
:1027700008142241007F40404040007F020C027F4D
:10278000007F0408107F003E4141413E007F09095F
:102790000906003E4151215E007F09192946004685
:1027A000494949310001017F0101003F4040403F5C
:1027B000001F2040201F003F4038403F00631408A6
:1027C0001463000708700807006151494543000081
:1027D0007F41410000552A552A55000041417F00A4
:1027E0000402FF020400002040FF4020000001021C
:1027F0000400002054545478007F48444438003882
:102800004444442000384444487F00385454541809
:1028100000087E0901020018A4A4A47C007F08041B
:1028200004780000447D4000004080847D00007FEB
:10283000102844000000417F4000007C0418047808
:10284000007C0804047800384444443800FC242404
:1028500024180018242418FC007C080404080048EC
:102860005454542000043F444020003C4040207C0D
:10287000001C2040201C003C4030403C00442810FC
:102880002844001CA0A0A07C004464544C441414B0
:1028900014141414D6C7C4DCB3B5CAD7D1A1D2BAA4
:1028A000BEA7CAD2CEC2B6C8B0B4BCFCB4CEB5E7DF
:1028B000D1B9001413927E325292007C4444447C7D
:1028C00000010100FF494949494949FF000000B89A
:1028D00097929094B810007F4848447420FF0A0AE9
:1028E0004A8A7F00003F44444272200484C4A49C6E
:1028F0008784F48484848484000404040404040429
:10290000FF0404040404040404E42526342C2424D1
:1029100026E504040400007F252525252525257F9F
:102920000000004042CC00504EC8487FC848484094
:102930000040201F2048464140404748484E4061E3
:1029400006E01884E41C8465BE24A4640404FF002B
:102950000100FF4121120C1B61C0400000007E2AD3
:102960002A2A2A2A2A7E0000007F252525257F0085
:10297000007F252525257F102C24A46425262424CA
:10298000A424342C044048494949497F4949494BCA
:10299000484040218670007E4A4A4A4A4A7E0000EA
:1029A00000FE01407F41417F41417F41417F400026
:1029B000FC042424FCA5A6A4FC24242404601F8079
:1029C0008042462A12122A2642C0401010FF905020
:1029D000988888E98E8888988842817F00404026C0
:1029E0002518081631602030EF28284464DC105484
:1029F000FF54547C10017F215122140F14253F45B0
:102A0000454544021CC0304C300F08F8080828180F
:102A1000085E4320201008040301060830602000EF
:102A2000F848484848FF48484848F80000000F0464
:102A30000404043F444444444F407000FE024242B8
:102A40004242FA42424262420218272020202020BD
:102A50003F20212E24202000000000000000000064
:102A600000000000000000000000F800000000006E
:102A70000000333000000000100C06100C060000AF
:102A80000000000000000040C07840C07840000412
:102A90003F04043F040400007088FC08300000007C
:102AA0001820FF211E0000F008F000E018000000D0
:102AB000211C031E211E0000F00888700000001E6B
:102AC0002123241927211010160E000000000000F9
:102AD00000000000000000000000E01804020000F8
:102AE0000000071820400000020418E00000000069
:102AF00040201807000000404080F0804040000265
:102B000002010F01020200000000F00000000001BD
:102B100001011F0101010000000000000000008011
:102B2000B070000000000000000000000000000085
:102B3000010101010101010000000000000000008E
:102B40003030000000000000000000806018040029
:102B50006018060100000000E010080810E0000006
:102B60000F102020100F00001010F80000000000CF
:102B700020203F2020000000700808088870000016
:102B80003028242221300000300888884830000096
:102B900018202020110E000000C02010F8000000B6
:102BA000070424243F240000F8088888080800004F
:102BB00019212020110E0000E01088881800000064
:102BC0000F112020110E0000380808C83808000036
:102BD00000003F00000000007088080888700000B6
:102BE0001C222121221C0000E010080810E0000037
:102BF00000312222110F00000000C0C000000000C0
:102C000000003030000000000000800000000000E4
:102C100000806000000000000080402010080000DC
:102C200001020408102000404040404040400004A1
:102C30000404040404040000081020408000000084
:102C400020100804020100007048080808F0000085
:102C500000003036010000C030C828E810E000074E
:102C600018272423140B000000C038E000000020C7
:102C70003C23020227382008F8888888700000204A
:102C80003F202020110E00C0300808080838000737
:102C90001820202010080008F808080810E000207C
:102CA0003F202020100F0008F88888E80810002036
:102CB0003F20202320180008F88888E8081000200A
:102CC0003F200003000000C030080808380000075B
:102CD000182020221E020008F808000008F808202A
:102CE0003F210101213F20000808F80808000000EA
:102CF00020203F2020000000000808F8080800C03D
:102D00008080807F00000008F888C0281808002014
:102D10003F20012638200008F808000000000020AD
:102D20003F20202020300008F8F800F8F8080020A4
:102D30003F003F003F200008F830C00008F808209E
:102D40003F200007183F00E01008080810E0000FBF
:102D500010202020100F0008F808080808F00020B4
:102D60003F210101010000E01008080810E0000FF9
:102D700018242438504F0008F8888888887000206C
:102D80003F2000030C30200070880808083800003D
:102D900038202121221C00180808F8080818000013
:102DA00000203F2000000008F808000008F8080094
:102DB0001F202020201F000878880000C838080045
:102DC0000007380E010000F80800F80008F80003BA
:102DD0003C0700073C03000818688080681808203A
:102DE000302C03032C30200838C800C838080000F5
:102DF00000203F2000000010080808C83808002004
:102E000038262120201800000000FE0202020000E7
:102E100000007F40404000000C30C0000000000077
:102E20000000010638C00000020202FE000000009F
:102E30004040407F00000000000402020204000045
:102E40000000000000000000000000000000008002
:102E500080808080808080000202040000000000EA
:102E60000000000000000000008080808000000062
:102E700019242222223F2008F80080800000000050
:102E80003F112020110E0000000080808000000013
:102E90000E112020201100000000808088F8000022
:102EA0000E112020103F2000008080808000000054
:102EB0001F222222221300008080F08888881800B8
:102EC00020203F20200000000080808080800000C3
:102ED0006B94949493600008F80080808000002038
:102EE0003F210000203F2000809898000000000053
:102EF00020203F2020000000000080989800000063
:102F0000C08080807F000008F80000808080002062
:102F10003F24022D302000000808F80000000000C7
:102F200020203F2020000080808080808080002042
:102F30003F20003F20003F808000808080000020F4
:102F40003F210000203F20000080808080000000A2
:102F50001F202020201F0080800080800000008033
:102F6000FFA12020110E0000000080808080000062
:102F70000E112020A0FF80808080008080800020B3
:102F8000203F212000010000008080808080000020
:102F900033242424241900008080E0808000000075
:102FA00000001F20200000808000000080800000C2
:102FB0001F202020103F2080808000008080800023
:102FC000010E300806010080800080008080800FA4
:102FD000300C030C300F00008080008080800000E7
:102FE00020312E0E31200080808000008080808083
:102FF000818E701806010000808080808080000033
:1030000021302C2221300000000000807C020200D0
:10301000000000003F404000000000FF00000000F2
:10302000000000FF0000000002027C8000000000A1
:1030300040403F00000000000000000000808000D1
:10304000000000000001010000000000000000007E
:103050000000000000000000000000000000000070
:103060000000000000000000000000000000000060
:103070000000000000000000000000000000000050
:10308000000000000000000000C0E0F8FCFE7F3FF0
:103090000F0F07070787C7C7C7E7EFFFFFFFEFE778
:1030A000E7E7E7E7EFFFFFFFEFE7E7E7E7E7F70728
:1030B0000F3F7FFFFEFCF0C000000000000000009A
:1030C0000000D8DCDFDFDFDFD701000000000000F8
:1030D0003E7FFFFFE3E1E1FFFFFFE0E0E0E0E0E053
:1030E000E0FFFFFFE0E0E0E0C18307000000000137
:1030F000D7DFDFDFDFDCD8000000000000000103C5
:103100000F1F3FFFFFFEF8F0E0C0800000F8F0E086
:10311000C0C0C0FFFFFFC0C0C0C0C0C0C0FFFFFF35
:10312000C0E0E1F3FF7F3F00C0E0F8FEFFFFFF3F9C
:103130001F07010000000000000000000000000068
:103140000001070F3F7FFFFEFCF9F3C1810101FF82
:10315000FFFF01010101010101FFFFFF030181C028
:10316000F0FCFEFFFF7F3F0F0703000000000000A0
:10317000000000000000000000000000000000004F
:1031800000000003070F3F7FFFFFFFFBF3E3C303D4
:103190000303030383C3F3F3FBFFFFFF7F3F0F032F
:1031A000010000000000000000000000000000001E
:1031B000000000000000000000000000000000000F
:1031C00000000000000307071F3F7FFFFEFCFCFE1E
:1031D000FFFF7F3F0F07030000000000000000001A
:1031E00000000000000000000000000000000000DF
:1031F00000000000000000000000000000000000CF
:10320000000000000000000003070F0F070100008E
:1032100000000000000000000000000000000000AE
:1032200000000000000000004832000800000020FC
:1032300038030000F825000828340008380300206F
:10324000000400005E2600081184A24A04680901F7
:10325000020304060708090C691005220204060887
:10326000180E8080C0C0C0606060303030381801F7
:103270002A0C01AD0E0E0E06013B0E0E172A1C2164
:103280001929080918706060E0C0C0808055080ED8
:1032900011C0E07030381C0C0607030301017449AB
:1032A0003B1F8080F0F8F8F00C180880E0F0F8FC84
:1032B0003C1C622DFCF8F0E01D980FC0C0C101035A
:1032C0000307060E0C183870606C380EC0F0781EBC
:1032D0000733313878FCFEF6C016198A11180CF83D
:1032E000FCDE0E0F1EBEFCF006FF0118130307FFE5
:1032F000FFFE801E3FFFFFF9F9FFFF7F1F0E7F15C6
:103300002FC180CECEC6C01F18093F80FCFCFD7DBA
:1033100001C07C1270195B19462E01070E3CF8792A
:1033200074FEFF03181001030F1F7FFEFCF0F0F086
:103330007F7F3E10030E1F1F0F0F030407011206AD
:103340001905180D0F1E3F7F7F7F79733F3F1F0EBA
:103350002D1A0317180E0E0F0F1F3F3D080C1F1FCD
:103360001F193C1D7009F3F0FCFE3F1F070114CF2D
:10337000FF70A6031F7EF0C03C0303011E1CC0C0EB
:1033800040011808F87840C04058580A51399A410D
:103390001D60F0E02001D630303818104A013E3967
:1033A0002D5DE0F83F0F555809070E1C383060E0DE
:1033B000C03F1138154060607030180C0711083F8D
:1033C0007D66E7E3C0C0C0E0607D19EC2A60011CA7
:1033D0007F7F610129069DE1E0E0C0A0111A802CE9
:1033E0001B70383C7A036A997E180E030306060C9C
:1033F0000C1818383030706071290119B61A810420
:1034000069BC39C759013920196F080C11303030A7
:1034100018181C0C0E06070357011E19F329011971
:08342000BC99015915012200BD
:0400000508000131BD
:00000001FF
